:100000000C949A000C94B3000C94B3000C94B300BD
:100010000C94B3000C94B3000C94B3000C94B30094
:100020000C94B3000C94B3000C94B3000C94B30084
:100030000C94B3000C94B3000C94B3000C94B30074
:100040000C94B3000C94B3000C94B3000C94B30064
:100050000C94B3000C94B3000C94B3000C94B30054
:100060000C94B3000C94B3000C94B3000C94B30044
:100070000C94B3000C94B3000C94B3000C94B30034
:100080000C94B3000C94B3000C94B3000C94B30024
:100090000C94B3000C94B3000C94B3000C94B30014
:1000A0000C94B3000C94B3000C94B3000C94B30004
:1000B0000C94B3000C94B3000C94B3000C94B300F4
:1000C0000C94B3000C94B3000C94B3000C94B300E4
:1000D0000C94B3000C94B3000C94B3000C94B300D4
:1000E0000C94B3000C94B3000C94B3000C94B300C4
:1000F0000C94B3000C94B3000C94B3000C94B300B4
:100100000C94B3000C94B3000C94B3000C94B300A3
:100110000C94B3000C94B3000C94B3000C94B30093
:100120000C94B3000C94B3000C94B3000C94B30083
:100130000C94B30011241FBECFEFD1E8DEBFCDBFBA
:1001400000E00CBF12E0A0E0B2E0EEECFEE000E068
:100150000BBF02C007900D92A432B107D9F70E94DD
:10016000B8020C9465070C9400001092C50089E158
:100170008093C4001092C00088E18093C10086E1A2
:100180008093C20008958091C00087FFFCCF8091CA
:10019000C60008958091C00087FF03C00E94C3007D
:1001A000F9CF08959091C00095FFFCCF8093C600D1
:1001B0000895CF93DF93EC018991882319F00E9471
:1001C000D200FACFDF91CF910895CF93DF93EC0166
:1001D000CE01FE012491222331F02196FC0184916D
:1001E0000E94D200F5CFDF91CF9108951092B9000F
:1001F00088E48093B800089594EA9093BC0040EAA4
:1002000056E861E070E09091BC0097FD07C0415056
:10021000510961097109B9F781E008959091B90018
:10022000987F983011F09031B9F78093BB0084E843
:100230008093BC0080EA96E8A1E0B0E02091BC0089
:1002400027FD05C00197A109B109C1F7E5CF80914C
:10025000B900887F883111F08034F1F680E008958C
:1002600024EA34E844E92093BC009091BC0097FF55
:10027000FCCF9091B900987F983011F0903199F7A8
:100280008093BB003093BC009091BC0097FFFCCFE3
:100290009091B900987F903211F0983539F44093DD
:1002A000BC009091BC0094FDFCCFDDCF089584E9A3
:1002B0008093BC008091BC0084FDFCCF08958093A6
:1002C000BB0084E88093BC008091BC0087FFFCCF1A
:1002D000089584EC8093BC008091BC0087FFFCCF24
:1002E0008091BB00089584E88093BC008091BC009D
:1002F00087FFFCCF8091BB000895CF93DF931F92BF
:100300001F92CDB7DEB74A8369830E94FC006981E2
:10031000862F0E945F014A81842F0E945F010F9007
:100320000F90DF91CF910C9457011F93CF93DF93E0
:100330001F92CDB7DEB7182F69830E94FC00698138
:10034000862F0E945F01812F81600E94FC000E9425
:10035000730189830E94570189810F90DF91CF91AA
:100360001F910895AF92BF92CF92DF92EF92FF92CA
:100370000F931F93CF93DF9300D0CDB7DEB7182F25
:10038000022F4A835B8369830E94FC006981862F68
:100390000E945F01812F81600E94FC004A81A42E8F
:1003A0005B81B52E10E0E12CF12C680181E0C81AC8
:1003B000D108E016F10689F0EC14FD0419F40E944E
:1003C000730102C00E946901F5018083FFEFEF1AFB
:1003D000FF0A8FEFA81AB80AECCF0F900F900F907A
:1003E000DF91CF911F910F91FF90EF90DF90CF9011
:1003F000BF90AF900C94570160EA76E881E090E0FE
:100400000C94F600982F92959F708F702AE0929F1F
:10041000800D112408956AE00E941A0320E1829F52
:10042000900D1124892F0895CF93DF93EC0180ED77
:100430000E94FC0080E00E945F010E94570181ED54
:100440000E94FC000E9469010E94020288830E94AF
:1004500069010E94020289830E9469010E940202CE
:100460008A830E9469010E9402028B830E946901B3
:100470000E9402028C830E9469010E9402028D8305
:100480000E9473010E9402028E83DF91CF910C942F
:100490005701CF93DF93EC0180ED0E94FC0080E0D8
:1004A0000E945F0188810E940B020E945F01898186
:1004B0000E940B020E945F018A810E940B020E942F
:1004C0005F018B810E940B020E945F018C810E9460
:1004D0000B020E945F018D810E940B020E945F014E
:1004E0008E810E940B020E945F01DF91CF910C94DC
:1004F0005701CF92DF92EF92FF92CF93DF9380ED7F
:100500000E94FC0081E10E945F010E94570181ED81
:100510000E94FC000E946901D82F0E947301C82F1D
:100520000E9457016D2F70E080E090E00E949303DD
:100530006B017C018C2F8295869586958370682F40
:1005400070E080E090E00E94950320E030E040E819
:100550005EE30E9421049B01AC01C701B6010E9429
:100560002703DF91CF91FF90EF90DF90CF90089518
:10057000CF93DF93CDB7DEB7A4970FB6F894DEBF65
:100580000FBECDBF0E94B5000E94FC0181E188A38F
:1005900084E08F8F89E18E8F8FE08C8F8EE28B8F3E
:1005A00087E38A8FCE014A960E94490280E0A82EF6
:1005B00082E0B82E8E010F5D1F4F95E0C92E92E0AC
:1005C000D92ECE0101967C01CE014A960E941402DA
:1005D00088A11F928F93BF92AF921F930F930E9497
:1005E0008E048A8D1F928F938B8D1F928F938C8D8B
:1005F0001F928F938E8D1F928F938F8D1F928F934B
:100600001F930F93DF92CF92FF92EF920E948E047E
:10061000C7010E94D9009FEF27EA81E69150204050
:100620008040E1F700C000000FB6F894DEBF0FBEB7
:10063000CDBFCACF991B79E004C0991F961708F067
:10064000961B881F7A95C9F7809508955058BB2747
:10065000AA270E943E030C94E7030E94D90338F0B6
:100660000E94E00320F039F49F3F19F426F40C9423
:10067000D6030EF4E095E7FB0C94D003E92F0E941B
:10068000F80358F3BA17620773078407950720F039
:1006900079F4A6F50C941A040EF4E0950B2EBA2FFB
:1006A000A02D0B01B90190010C01CA01A001112478
:1006B000FF27591B99F0593F50F4503E68F11A1624
:1006C000F040A22F232F342F4427585FF3CF4695B5
:1006D00037952795A795F0405395C9F77EF41F16D7
:1006E000BA0B620B730B840BBAF09150A1F0FF0FA1
:1006F000BB1F661F771F881FC2F70EC0BA0F621F8D
:10070000731F841F48F4879577956795B795F7957C
:100710009E3F08F0B0CF9395880F08F09927EE0F11
:10072000979587950895E89409C097FB3EF49095B6
:100730008095709561957F4F8F4F9F4F9923A9F0BA
:10074000F92F96E9BB279395F69587957795679549
:10075000B795F111F8CFFAF4BB0F11F460FF1BC08D
:100760006F5F7F4F8F4F9F4F16C0882311F096E920
:1007700011C0772321F09EE8872F762F05C06623CE
:1007800071F096E8862F70E060E02AF09A95660F87
:10079000771F881FDAF7880F9695879597F9089540
:1007A00097F99F6780E870E060E008959FEF80EC24
:1007B000089500240A9416161706180609060895C7
:1007C00000240A9412161306140605060895092E2D
:1007D0000394000C11F4882352F0BB0F40F4BF2B9C
:1007E00011F460FF04C06F5F7F4F8F4F9F4F0895DC
:1007F00057FD9058440F551F59F05F3F71F04795D2
:10080000880F97FB991F61F09F3F79F087950895B6
:10081000121613061406551FF2CF4695F1DF08C0D5
:10082000161617061806991FF1CF869571056105F2
:1008300008940895E894BB2766277727CB0197F99A
:1008400008950E9434040C94E7030E94D90338F001
:100850000E94E00320F0952311F00C94D0030C9437
:10086000D60311240C941B040E94F80370F3959F87
:10087000C1F3950F50E0551F629FF001729FBB2797
:10088000F00DB11D639FAA27F00DB11DAA1F649F33
:100890006627B00DA11D661F829F2227B00DA11DE6
:1008A000621F739FB00DA11D621F839FA00D611D6C
:1008B000221F749F3327A00D611D231F849F600D8D
:1008C000211D822F762F6A2F11249F5750409AF0B6
:1008D000F1F088234AF0EE0FFF1FBB1F661F771F42
:1008E000881F91505040A9F79E3F510580F00C940D
:1008F000D0030C941B045F3FE4F3983ED4F3869539
:1009000077956795B795F795E7959F5FC1F7FE2BAC
:10091000880F911D9695879597F908950F931F93CA
:10092000CF93DF93CDB7DEB72E970FB6F894DEBF27
:100930000FBECDBF0E891F8986E08C831A83098381
:100940008FEF9FE79E838D83AE01465E5F4F688D7C
:10095000798DCE0101960E94BE042F813885F80161
:10096000E20FF31F10822E960FB6F894DEBF0FBE73
:10097000CDBFDF91CF911F910F9108952F923F929C
:100980004F925F926F927F928F929F92AF92BF929F
:10099000CF92DF92EF92FF920F931F93CF93DF934B
:1009A000CDB7DEB72C970FB6F894DEBF0FBECDBF24
:1009B0007C016B018A01FC0117821682838181FF11
:1009C000BDC1CE0101964C01F7019381F60193FD63
:1009D000859193FF81916F01882309F4ABC1853222
:1009E00039F493FD859193FF81916F01853229F44C
:1009F000B70190E00E94CF06E7CF512C312C20E0C8
:100A00002032A0F48B3269F030F4803259F0833216
:100A100069F420612CC08D3239F0803339F42160C3
:100A200026C02260246023C0286021C027FD27C083
:100A300030ED380F3A3078F426FF06C0FAE05F9EBA
:100A4000300D1124532E13C08AE0389E300D11242E
:100A5000332E20620CC08E3221F426FD6BC120643F
:100A600006C08C3611F4206802C0883641F4F601C5
:100A700093FD859193FF81916F018111C1CF982FD3
:100A80009F7D9554933028F40C5F1F4FFFE3F9834B
:100A90000DC0833631F0833771F0833509F05BC0C8
:100AA00022C0F801808189830E5F1F4F4424439444
:100AB000512C540115C03801F2E06F0E711CF80181
:100AC000A080B18026FF03C0652D70E002C06FEFEB
:100AD0007FEFC5012C870E94C4062C0183012C8561
:100AE0002F77222E17C03801F2E06F0E711CF8012B
:100AF000A080B18026FF03C0652D70E002C06FEFBB
:100B00007FEFC5012C870E94B9062C012C85206837
:100B1000222E830123FC1BC0832D90E0481659062A
:100B2000B0F4B70180E290E00E94CF063A94F4CF8F
:100B3000F50127FC859127FE81915F01B70190E0C7
:100B40000E94CF0631103A94F1E04F1A5108411437
:100B5000510471F7E5C0843611F0893639F5F80192
:100B600027FF07C060817181828193810C5F1F4FD5
:100B700008C060817181072E000C880B990B0E5FF5
:100B80001F4F2F76722E97FF09C090958095709514
:100B900061957F4F8F4F9F4F2068722E2AE030E083
:100BA000A4010E940707A82EA81844C0853729F47D
:100BB0002F7EB22E2AE030E025C0F22FF97FBF2E23
:100BC0008F36C1F018F4883579F0B4C0803719F049
:100BD000883721F0AFC02F2F2061B22EB4FE0DC098
:100BE0008B2D8460B82E09C024FF0AC09F2F966009
:100BF000B92E06C028E030E005C020E130E002C098
:100C000020E132E0F801B7FE07C060817181828186
:100C100093810C5F1F4F06C06081718180E090E07E
:100C20000E5F1F4FA4010E940707A82EA818FB2DD6
:100C3000FF777F2E76FE0BC0372D3E7FA51450F434
:100C400074FE0AC072FC08C0372D3E7E05C0BA2C67
:100C5000372D03C0BA2C01C0B52C34FF0DC0FE01E6
:100C6000EA0DF11D8081803311F4397E09C032FF15
:100C700006C0B394B39404C0832F867809F0B3946C
:100C800033FD13C030FF06C05A2CB31418F4530CB4
:100C90005B18B32CB31468F4B70180E290E03C8792
:100CA0000E94CF06B3943C85F5CFB31410F43B18E3
:100CB00001C0312C34FF12C0B70180E390E03C87C3
:100CC0000E94CF063C8532FF17C031FD03C088E784
:100CD00090E002C088E590E0B7010CC0832F8678D1
:100CE00059F031FF02C08BE201C080E237FD8DE296
:100CF000B70190E00E94CF06A51438F4B70180E355
:100D000090E00E94CF065A94F7CFAA94F401EA0D1E
:100D1000F11D8081B70190E00E94CF06A110F5CFB0
:100D2000332009F451CEB70180E290E00E94CF0653
:100D30003A94F6CFF7018681978102C08FEF9FEF3B
:100D40002C960FB6F894DEBF0FBECDBFDF91CF91CA
:100D50001F910F91FF90EF90DF90CF90BF90AF90D9
:100D60009F908F907F906F905F904F903F902F90CB
:100D70000895FC010590615070400110D8F78095EE
:100D800090958E0F9F1F0895FC0161507040019057
:100D90000110D8F7809590958E0F9F1F08950F939F
:100DA0001F93CF93DF93FB01238121FD03C08FEFBE
:100DB0009FEF28C022FF16C04681578124813581CC
:100DC0004217530744F4A081B1819D012F5F3F4F2B
:100DD000318320838C93268137812F5F3F4F378368
:100DE000268310C0EB01092F182F0084F185E02D18
:100DF0001995892BE1F68E819F8101969F838E83C1
:100E0000812F902FDF91CF911F910F910895FA01BB
:100E1000AA27283051F1203181F1E8946F936E7F39
:100E20006E5F7F4F8F4F9F4FAF4FB1E03ED0B4E02A
:100E30003CD0670F781F891F9A1FA11D680F791F6B
:100E40008A1F911DA11D6A0F711D811D911DA11D7C
:100E500020D009F468943F912AE0269F112430198C
:100E6000305D3193DEF6CF010895462F4770405D27
:100E70004193B3E00FD0C9F7F6CF462F4F70405DD6
:100E80004A3318F0495D31FD4052419302D0A9F731
:100E9000EACFB4E0A6959795879577956795BA952B
:100EA000C9F700976105710508959B01AC010A2EF1
:100EB00006945795479537952795BA95C9F7620FC8
:0E0EC000731F841F951FA01D0895F894FFCF87
:100ECE00323025640025732D253032642D253032C5
:100EDE006420253032643A253032643A253032644B
:040EEE000A0D0000E9
:00000001FF
