:100000000C949A000C94BB000C94BB000C94BB00A5
:100010000C94BB000C94BB000C94BB000C94BB0074
:100020000C94BB000C94BB000C94BB000C94BB0064
:100030000C94BB000C94BB000C94BB000C94BB0054
:100040000C94BB000C94BB000C94BB000C94BB0044
:100050000C94BB000C94BB000C94BB000C94BB0034
:100060000C94BB000C94BB000C94BB000C94BB0024
:100070000C94BB000C94BB000C94BB000C94BB0014
:100080000C94BB000C94BB000C94BB000C94BB0004
:100090000C94BB000C94BB000C94BB000C94BB00F4
:1000A0000C94BB000C94BB000C94BB000C94BB00E4
:1000B0000C94BB000C94BB000C94BB000C94BB00D4
:1000C0000C94BB000C94BB000C94BB000C94BB00C4
:1000D0000C94BB000C94BB000C94BB000C94BB00B4
:1000E0000C94BB000C94BB000C94BB000C94BB00A4
:1000F0000C94BB000C94BB000C94BB000C94BB0094
:100100000C94BB000C94BB000C94BB000C94BB0083
:100110000C94BB000C94BB000C94BB000C94BB0073
:100120000C94BB000C94BB000C94BB000C94BB0063
:100130000C94BB0011241FBECFEFD1E8DEBFCDBFB2
:1001400000E00CBF12E0A0E0B2E0E4EDFCE300E070
:100150000BBF02C007900D92AE3FB107D9F725E063
:10016000AEEFB2E001C01D92AB33B207E1F70E94DF
:100170000B190C94681E0C94000063EA79E883EE76
:1001800098E50895CF93DF93EB01DC01FA01E230AB
:10019000F10530F0299139912D933D933297F7CFA6
:1001A0009A012E7FDC01A20FB31FFB01E20FF31FA8
:1001B00040FF02C020812C93DF91CF9108950097DA
:1001C000D1F0DC01ED91FC9111973097A1F02081E5
:1001D000222389F02681378112968D919C91139765
:1001E0002817390741F481810E94C21680FD06C09C
:1001F00080E090E0089589E090E0089583E090E049
:1002000008950F93CF93DF93EC019A01AB01BC01EA
:100210006E5C7F4F01E089810E947917892B11F56F
:10022000FE01E05DFD4F8081918185359A4AE1F4C0
:10023000E85CF14080819181A281B381BB27863443
:100240009144A445B10591F0CC57DF4F48815981C5
:100250006A817B81772781E046345144644571058A
:1002600031F404C083E003C082E001C080E0DF918C
:10027000CF910F9108952F923F924F925F926F927C
:100280007F928F929F92AF92BF92CF92DF92EF9226
:10029000FF920F931F93CF93DF93CDB7DEB72E97C7
:1002A0000FB6F894DEBF0FBECDBFDC01ED91FC911F
:1002B00011972081022E000C330B205331092A3074
:1002C000310538F451815A3321F43296ED93FC9381
:1002D00002C020E030E0FB0111821082232B09F0E4
:1002E00017C220910003309101033E872D8721150D
:1002F000310509F410C2142F31832083D9018C9168
:10030000882371F011968C910E94C21680FD08C05E
:10031000112309F403C282FF01C28AE090E006C201
:10032000ED85FE851082118280E00E94C91680FD55
:10033000F8C1112311F082FDF0CF40E050E0BA0186
:100340008D859E850E9401018130C9F4ED85FE8571
:10035000EC50FE4F8081811103C08DE090E0E6C13A
:10036000ED85FE85E850FE4F4080518062807380AD
:10037000B301A2018D859E850E94010103C0412C1D
:10038000512C3201833009F4CFC18111E6CFAD8504
:10039000BE85DD968D919C91DE9781159240E9F6A0
:1003A000ED85FE85E85BFF4F80809180A12CB12C0C
:1003B00081149104A104B10441F4ED85FE85EA5A4B
:1003C000FF4F80809180A280B380ED85FE85828E74
:1003D000938EA48EB58EEE5BFF4FA081ED85FE85DA
:1003E000A3838FEF8A0F823008F0B7CF17AD128347
:1003F000112309F4B2CF812F90E09C0121503109E3
:1004000082239323892B09F0A8CFED5BFF4F208037
:100410003180ED85FE8531862086C1018F70992758
:10042000892B09F09ACFEB5BFF4FC080D180E12C84
:10043000F12CC114D104E104F10441F4ED85FE85F1
:10044000EE5AFF4FC080D180E280F380ED85FE85BB
:10045000E05CFF4F208131813A832983232B09F40B
:100460007CCFB0E0A50194010E944A1A6D837E837F
:100470008F839887A981BA81CD01A0E0B0E08987F8
:100480009A87AB87BC87C10154E0969587955A95AA
:10049000E1F749855A856B857C85480F591F611D99
:1004A000711D8D819E81AF81B885840F951FA61F18
:1004B000B71F89839A83AB83BC83C816D906EA0623
:1004C000FB0608F44ACFC701B60129813A814B8166
:1004D0005C81621B730B840B950B212F30E040E095
:1004E00050E00E94281A211531054105510509F4F3
:1004F00034CF263F8FE038074105510540F0263FB5
:100500009FEF39074105510520F412E003C011E0C7
:1005100001C013E069017A01A2E0CA0ED11CE11CFE
:10052000F11CED85FE85C68AD78AE08EF18E468E57
:10053000578E60A271A289859A85AB85BC85840D92
:10054000951DA61DB71D82A393A3A4A3B5A349819E
:100550005A816B817C81440D551D661D771D42A714
:1005600053A764A775A71330B9F4232809F0F5CE73
:10057000E25AFF4F80819181A281B381ED85FE8592
:1005800086A397A3A0A7B1A742E0CC0CDD1CEE1C6C
:10059000FF1C4A95D1F72DC0232809F4DECE2D810A
:1005A0003E814F815885820F931FA41FB51FED8593
:1005B000FE8586A397A3A0A7B1A7123029F4CC0C7F
:1005C000DD1CEE1CFF1C15C0A3E0B0E0A7019601E6
:1005D0000E944A1ADC01CB01B695A795979587959D
:1005E000F1E0CF22DD24EE24FF24C80ED91EEA1E3E
:1005F000FB1E2FEFC20E21E0D21EE11CF11C89E090
:10060000F694E794D794C7948A95D1F78C149D04F7
:10061000AE04BF0408F4A1CE8FEF9FEFDC01ED859F
:10062000FE8586879787A08BB18BDF0112861386A4
:1006300014861586133009F054C01582EE59FF4F09
:1006400080819181A3019201280F391F411D511D05
:10065000FD01228B338B448B558B01E0BD016E5C19
:100660007F4F81810E947917892BD9F5ED85FE8511
:10067000E05DFD4F8081918185359A4A91F5ED8548
:10068000FE8582A993A9A4A9B5A982359245A14660
:10069000B14439F5ED85FE85EA5EFD4F808191819B
:1006A000A281B38182379247A144B146D1F4ED854E
:1006B000FE85E25EFD4F80819181A281B381ED854F
:1006C000FE8582879387A487B587E65EFD4F80818C
:1006D0009181A281B381ED85FE8586879787A08B66
:1006E000B18BAD85BE851C938091FE029091FF0277
:1006F00001969093FF028093FE0217969C938E932F
:100700001697FD0116A617A610AA11AA148206C0F4
:100710008BE090E00BC08CE090E008C080E090E0BF
:1007200005C083E090E002C081E090E02E960FB615
:10073000F894DEBF0FBECDBFDF91CF911F910F9117
:10074000FF90EF90DF90CF90BF90AF909F908F90F1
:100750007F906F905F904F903F902F9008958F9271
:100760009F92AF92BF92CF92DF92EF92FF920F9340
:10077000CF93DF93FC012481211103C080E090E03E
:1007800044C0EC01C6A4D7A4E0A8F1A84C01F2E350
:100790008F0E911C01E0A7019601B40189810E948E
:1007A000C517892B81F51C824AA15BA16CA17DA193
:1007B000C416D506E606F70608F38A8D9B8DAC8D28
:1007C000BD8D840F951FA61FB71FC816D906EA0650
:1007D000FB06A0F6AB80B12CE2E0AE16B10470F2DD
:1007E0008A8D9B8DAC8DBD8DC80ED91EEA1EFB1E59
:1007F00001E0A7019601B40189810E94C51781E03B
:10080000A81AB108E9CF81E090E0DF91CF910F9174
:10081000FF90EF90DF90CF90BF90AF909F908F9020
:100820000895AF92BF92CF92DF92EF92FF920F9313
:10083000CF93DF93FC01C6A4D7A4E0A8F1A84C1580
:100840005D056E057F05E1F06A017B01EC010E9408
:10085000AF035C01892B21F0AA24A394B12C12C010
:1008600001E0A7019601BE016E5C7F4F89810E9465
:100870007917892B89F7CEA6DFA6E8AAF9AA02C0C4
:10088000A12CB12CC501DF91CF910F91FF90EF907A
:10089000DF90CF90BF90AF9008950F93CF93DF93E9
:1008A000EC010E94AF03009709F058C088818330A3
:1008B00009F047C08D81882309F443C01EA61FA6F6
:1008C00018AA19AABE016E5C7F4FFB01CE018E5C97
:1008D0009D4FE817F90711F01192FBCF85E59AEAD1
:1008E000FE01E05DFD4F9183808382E592E5A1E604
:1008F000B1E48AAB9BABACABBDAB82E792E7A1E4C2
:10090000B1E67A9780839183A283B3838E859F8596
:10091000A889B989349680839183A283B3838A8519
:100920009B85AC85BD85349680839183A283B383F8
:100930002A893B894C895D8901E089810E94C5171C
:100940001D8240E050E060E089810E94261831E07D
:1009500020E0892B09F430E0832F922FDF91CF9193
:100960000F9108950F931F93FC019A01AB01225040
:1009700031094109510986899789A08DB18D029766
:10098000A109B109281739074A075B0768F4A28152
:10099000B0E00E944A1A02A513A524A535A5600F50
:1009A000711F821F931F03C060E070E0CB011F9195
:1009B0000F910895AF92BF92CF92DF92EF92FF9284
:1009C0001F93CF93DF93EC016A017B014230510505
:1009D0006105710508F4A8C08E899F89A88DB98D1D
:1009E000481759076A077B0708F09EC08881823044
:1009F00009F44AC0833009F46BC0813009F099C012
:100A00005A01B694A794AC0CBD1CC501892F992737
:100A100086954AA15BA16CA17DA1480F591F611D5C
:100A2000711DCE010E941104892B09F082C0F501CD
:100A3000F170EC0FFD1F12A98FEFA81AB80AC501BB
:100A4000892F992786954AA15BA16CA17DA1480FAA
:100A5000591F611D711DCE010E941104892B09F0DF
:100A600068C0C5019170FE01E80FF91F82A9612FCE
:100A700070E0782BC0FE06C054E0769567955A95D5
:100A8000E1F723C07F7021C077276F2D5E2D4D2D9C
:100A90008AA19BA1ACA1BDA1480F591F6A1F7B1F52
:100AA000CE010E941104892B09F043C0CC0CDD1C3F
:100AB000EE1CFF1CE894C0F881E0D822EE24FF244D
:100AC000FE01EC0DFD1D62A973A980E090E034C029
:100AD0008AA19BA1ACA1BDA127E07695679557950A
:100AE00047952A95D1F7480F591F6A1F7B1FCE01E2
:100AF0000E941104892BE9F482E0CC0CDD1CEE1C71
:100B0000FF1C8A95D1F78CEFC82281E0D822EE2411
:100B1000FF24FE01EC0DFD1D82A993A9A4A9B5A98E
:100B2000BC01CD019F7008C061E070E080E090E002
:100B300003C06FEF7FEFCB01DF91CF911F91FF904B
:100B4000EF90DF90CF90BF90AF9008950F931F93D9
:100B5000CF93DF93EC011D821C824E815F816885FB
:100B60007985413051056105710519F482E090E005
:100B700065C008811981F80186899789A08DB18D9A
:100B8000481759076A077B0788F741155105610522
:100B90007105F1F48081833049F446A157A160A525
:100BA00071A5411551056105710591F41A861B86E1
:100BB0001C861D86F80180859185892BB9F286A156
:100BC00097A1A0A5B1A58E879F87A88BB98B2DC0B3
:100BD000F801828181111EC0888199810E94DA0406
:100BE000AB01BC014F3FFFEF5F076F077F0721F1AC
:100BF000423051056105710508F4B8CFE881F981EB
:100C000086899789A08DB18D481759076A077B0798
:100C100018F3ACCF4A875B876C877D87C8010E9439
:100C2000B2046E877F87888B998BC801C2969B8B95
:100C30008A8B80E090E002C081E090E0DF91CF916C
:100C40001F910F9108954F925F926F927F928F92B2
:100C50009F92AF92BF92CF92DF92EF92FF920F934B
:100C60001F93CF93DF9300D01F92CDB7DEB74C0117
:100C70006A017B0128013901423051056105710586
:100C800008F4EAC0FC0186899789A08DB18D4817C8
:100C900059076A077B0708F0DFC08081823009F4BA
:100CA00075C0833009F498C0813009F0CEC05A0174
:100CB000B694A794A40EB51EC501892F99278695D1
:100CC00042A153A164A175A1480F591F611D711D57
:100CD000C4010E941104009709F0B9C0F501F17038
:100CE000AF01480D591DD701C60181709927AA2768
:100CF000BB2789839A83AB83BC83C0FE0BC0DA0118
:100D0000D2968C91282F2F70B0E14B9EC0011124F8
:100D1000822B01C0842DFA0182ABFFEFAF1ABF0A0C
:100D200081E0D40114968C931497C501892F9927DB
:100D3000869592964D915D916D917C919597480F16
:100D4000591F611D711DC4010E941104009709F013
:100D50007EC0B1E0BB22F401EA0DFB1D29813A817E
:100D60004B815C81232B242B252B41F064E076946E
:100D70006794579447946A95D1F706C032A9307F9B
:100D8000252D2F70432E422A42AA61C077276F2D4E
:100D90005E2D4D2DF40182A193A1A4A1B5A1480F10
:100DA000591F6A1F7B1FC4010E941104009709F09C
:100DB0004EC0CC0CDD1CEE1CFF1CE894C0F8F1E02A
:100DC000DF22EE24FF2422E3C20ED11CF401EC0D3D
:100DD000FD1D518240823BC0F40182A193A1A4A1D8
:100DE000B5A137E076956795579547953A95D1F730
:100DF000480F591F6A1F7B1FC4010E9411040097EE
:100E000031F522E0CC0CDD1CEE1CFF1C2A95D1F73D
:100E1000FCEFCF22F1E0DF22EE24FF2422E3C20E1A
:100E2000D11CF401EC0DFD1D408151816281738163
:100E3000442755276627707F442A552A662A772A31
:100E4000408251826282738202C082E090E021E09F
:100E5000D40114962C9302C082E090E00F900F9082
:100E60000F900F90DF91CF911F910F91FF90EF9016
:100E7000DF90CF90BF90AF909F908F907F906F90BA
:100E80005F904F9008954F925F926F927F928F92F2
:100E90009F92AF92BF92CF92DF92EF92FF920F9309
:100EA0001F93CF93DF93EC012A013B0141155105BC
:100EB0006105710599F48A849B84AC84BD84811496
:100EC0009104A104B10409F18E899F89A88DB98D7F
:100ED00088169906AA06BB06E0F017C00E94DA043D
:100EE0006B017C01623071058105910508F480C0B9
:100EF0008E899F89A88DB98DC816D906EA06FB068A
:100F000008F47BC05301420104C0812C912C540190
:100F10008394750164018FEFC81AD80AE80AF80AA9
:100F20008E899F89A88DB98DC816D906EA06FB0659
:100F300068F022E082169104A104B10410F460E08C
:100F400058C082E0C82ED12CE12CF12CB701A601AB
:100F5000CE010E94DA048B019C01672B682B692B60
:100F6000A1F00F3F8FEF18072807380729F001304D
:100F700011052105310519F4B801C90145C0C8148E
:100F8000D904EA04FB0439F6DACF0FEF1FEF2FEF95
:100F90003FE0B701A601CE010E942306009731F57C
:100FA0004114510461047104C1F4CA86DB86EC86E5
:100FB000FD868E859F85A889B9898F3F2FEF92077F
:100FC000A207B207D1F00197A109B1098E879F87C7
:100FD000A88BB98B81E08D8310C097018601B30186
:100FE000A201CE010E9423060097F9F2019741F079
:100FF00061E070E080E090E007C0B601C70104C086
:101000006FEF7FEF8FEF9FEFDF91CF911F910F91E8
:10101000FF90EF90DF90CF90BF90AF909F908F9018
:101020007F906F905F904F9008958F929F92AF92B4
:10103000BF92CF92DF92EF92FF920F931F93CF93C5
:10104000DF93EC016B01EC80FD808FEFE81AF80A6A
:1010500019F484E090E0E1C04E855F856889798964
:101060004115510561057105A1F387010F70112725
:101070000115110509F0BDC04F5F5F4F6F4F7F4FE6
:101080004E875F87688B798B4A855B856C857D850C
:1010900088819981FC01411551056105710531F483
:1010A00080859185E816F906A0F6A3C0228130E07C
:1010B00021503109F701A4E0F695E795AA95E1F7EB
:1010C0002E233F23232B09F094C00E94DA044B0106
:1010D0005C01623071058105910518F482E090E0B1
:1010E0009CC08FEF88169806A806B80619F481E010
:1010F00090E093C088819981FC0146895789608D71
:10110000718D84169506A606B70608F464C0CD282E
:1011100009F49FCF4A855B856C857D850E944307D6
:101120004B015C01611571058105910509F473C0DE
:10113000613071058105910589F28FEF8816980657
:10114000A806B806A1F2888199810E94AF03892B75
:1011500071F688819981FC01F2968E5C9D4FE817AB
:10116000F90711F01192FBCFC880D980B501A40115
:10117000C6010E94B204F60166A777A780AB91ABC7
:10118000D12CCC24C394E881F9818281D816B8F49B
:10119000C482888199810E94AF03892B09F0A7CF6F
:1011A000E881F98186A597A5A0A9B1A90196A11DFD
:1011B000B11D86A797A7A0ABB1ABD394E4CF86A50A
:1011C00097A5A0A9B1A98D199109A109B10986A76F
:1011D00097A7A0ABB1AB8A869B86AC86BD86B501CE
:1011E000A401888199810E94B2046E877F87888BD1
:1011F000998BFD82EC8285E0000F111F8A95E1F743
:101200000E5C1F4F88819981080F191F1B8B0A8B59
:1012100080E090E002C087E090E0DF91CF911F91E5
:101220000F91FF90EF90DF90CF90BF90AF909F9085
:101230008F900895CF93DF93EC0184E090E04E858A
:101240005F85688979894115510561057105F1F05E
:10125000888199810E9411040097D1F4EA89FB8961
:1012600090819923D1F08385953E41F09E3231F0F3
:101270008F73883019F480E090E012C060E070E075
:10128000CE010E9415080097D1F202C0009799F391
:101290001E861F86188A198A03C084E090E0F8CF62
:1012A000DF91CF910895CF93DF93EC014E855F8559
:1012B00068897989888199810E941104009771F465
:1012C000EA89FB892081253E49F0222339F061E03B
:1012D00070E0CE010E941508009741F3DF91CF9195
:1012E0000895811113C0E0910003F091010330973C
:1012F00009F010826115710511F0FB0110827093E5
:1013000001036093000380E090E008958BE090E09B
:1013100008952F923F924F925F926F927F928F9299
:101320009F92AF92BF92CF92DF92EF92FF920F9374
:101330001F93CF93DF93CDB7DEB7AD970FB6F89479
:10134000DEBF0FBECDBF7CA36BA3009709F46DC2B7
:10135000D42E98A78FA3DC011D921C924E71BE0162
:101360006F5F7F4FCE0183960E943B018C01892BDA
:1013700009F084C2CE0147969E8B8D8BEBA0FCA01A
:10138000F70180818F3211F08C3519F4FFEFEF1ADD
:10139000FF0A1F82188619861A86D7018C9180321F
:1013A00028F0F0E25F2EA5E04A2E6BC0CE01019638
:1013B0000E94A6058C011C8A1B8AD8C0590180E0B6
:1013C00090E0E12CF12C48E050E0C12C6FEFE61AE0
:1013D000F60AF50161915F01762F613208F066C06F
:1013E000E20EF31E613208F487C020E0892B09F475
:1013F000BBC08C91853E09F44C924830510511F4E4
:10140000CC0CCC0C8C2D8370813009F420618C2D98
:101410008C70843009F428601B962C93CE010196C1
:101420000E94A605009709F469C0ED89FE8923850D
:10143000009709F091C022FD99C04B895C89DA01BF
:101440001B968C911B9784FF8CC05A968D919C9112
:101450005B97A0E0B0E029813A81F9012081233037
:1014600061F4FA014489558960E070E0BA015527BA
:101470004427842B952BA62BB72B8F839887A9877E
:10148000BA879701F7018081FFEFEF1AFF0A8F32C9
:10149000C1F38C35B1F3AD89BE89FD01CD010B9649
:1014A000E817F90709F48ACF5192FACF6F3209F49D
:1014B00097CF6C3509F494CF6E3209F4E1C18417EB
:1014C000950708F051C067FF08C0FC2DF360CF2ED0
:1014D000E62FF0E0E957FE4F7081872E912CEFED5B
:1014E000F2E06191662309F4D6C1662E660F770893
:1014F00068147904B1F738C024E078CF4F85588953
:1015000069897A8989819A810E941104009709F07A
:101510008CCFEB89FC8980818823C1F0838583FD92
:101520000EC0AD89BE899F01255F3F4FE217F307CB
:1015300081F081914D9190E0841B9109B9F360E0B5
:1015400070E0CE0101960E9415086CCF84E090E017
:101550006CCF80E090E069CF8C01049739F422FDD4
:1015600005C005E010E002C006E010E02B883C88D2
:101570000115110529F42114310411F406E010E0DD
:10158000FD2DFF71F9A78D2D8C7109F4EBC00115AC
:101590001105D1F10430110571F5CE0101960E94BB
:1015A000A6058C01892B39F5CE0101960E945309BD
:1015B0008C01892B01F54F85588969897A89898140
:1015C0009A810E9411048C01892BA9F4EB89FC8972
:1015D000CF018096E817F90711F01192FBCF6D89C2
:1015E0007E894BE050E08B899C890E94C200E98192
:1015F000FA8181E0848329A5286029A72B883C886B
:101600000115110549F03AC1D1011B968C918171E8
:1016100009F032C1D2FC0CC1B9A5B3FFB0C00E9421
:10162000BD00F10166877787808B918B1386D1018E
:10163000148E158E168E178EE981FA81FEA3EDA306
:101640005A968D919C915B972C01612C712C808115
:10165000833069F454968D919C915597A0E0B0E049
:10166000DC0199278827482A592A6A2A7B2AD1012E
:101670005B961C921E925A9755961C921E925497F6
:1016800081E0EDA1FEA18483411451046104710441
:1016900009F475C086A597A5A0A9B1A98AA79BA79B
:1016A000ACA7BDA7B2E04B1651046104710408F465
:1016B000DAC086899789A08DB18D481659066A06C9
:1016C0007B0608F0D0C073016201EDA1FEA18689FE
:1016D0009789A08DB18DC816D906EA06FB0608F0D9
:1016E000AAC0B701A6018DA19EA10E94DA044B01F8
:1016F0005C01611571058105910509F49CC061309B
:1017000071058105910509F4AEC06F3F7F4F8F4F82
:101710009F4F09F4ABC000E010E09801B701A601AB
:101720008DA19EA10E9423068C01892B09F0A6C0E1
:10173000EDA1FEA186859785A089B1898F3FFFEF36
:101740009F07AF07BF0759F00196A11DB11DEDA17D
:10175000FEA186879787A08BB18B21E02583750139
:101760006401B3CF0115110509F088C0D1011B96A2
:101770008C9184FD7EC0D1FE02C080FD7DC0B9A5E4
:10178000B3FF02C0B062B9A709811A81F80146A56A
:1017900057A560A971A9AFA1B8A55A964D935D93BD
:1017A0006D937C935D975F963C922E925E97E9A530
:1017B0001496EC93D1015A968D919C915B97A0E081
:1017C000B0E0F8012081233061F4F10144895589AA
:1017D00060E070E0BA0155274427842B952BA62B97
:1017E000B72BEFA1F8A586879787A08BB18BF10166
:1017F000848D958DA68DB78DEFA1F8A582879387EF
:10180000A487B5871682178210861186168A178AD2
:10181000108E118E11830083D80116968D919C91A4
:1018200017979383828380E001C089E090E049C0EC
:1018300008E010E023C089819A81B301A2014150E0
:10184000510961097109FC014287538764877587D3
:101850004AA55BA56CA57DA50E9411048C01892B6E
:1018600009F48DCF0BC002E010E008C001E010E0E9
:1018700005C004E010E002C007E010E0C80121C08C
:101880004830510509F070CECC0CCC0C88E090E0CB
:101890004BE050E09BCD6FEB670F6A3120F46C2D6D
:1018A0006260C62E08C06FE9670F6A3120F4EC2D24
:1018B000E160CE2E7052FD01E80FF91F7083019692
:1018C00085CDAD960FB6F894DEBF0FBECDBFDF91CC
:1018D000CF911F910F91FF90EF90DF90CF90BF902D
:1018E000AF909F908F907F906F905F904F903F90C0
:1018F0002F9008952F923F924F925F926F927F9216
:101900008F929F92AF92BF92CF92DF92EF92FF920F
:101910000F931F93CF93DF93EC015B016A011901D1
:10192000F901118210820E94DF00009709F00EC1B8
:101930008C8187FD07C180FF07C18A859B85AC85A7
:10194000BD854E815F8168857985841B950BA60BCB
:10195000B70BA60160E070E084179507A607B707EC
:1019600008F077C06C0175C04E815F81688579850C
:10197000DB01CA019170AA27BB27892B8A2B8B2BED
:1019800009F0B2C088819981FC01228121502A018D
:101990003B01E9E07694679457944794EA95D1F730
:1019A000122F142109F45AC0888099804A895B89D2
:1019B0006C897D89C4010E94B2046115710581059D
:1019C000910509F46BC02B013C01410E511C611CB7
:1019D000711C7601EF2CFF24E694E114F10409F464
:1019E0007FC0F4018281212F30E0A701420F531FF5
:1019F00090E08417950718F47C01E21AF30A0E2D83
:101A0000A3019201B501F40181810E947917892B0C
:101A100009F080C0E881F9818481811143C0FE2CE6
:101A2000EE24FF0CAE0CBF1C8E819F81A885B9856A
:101A30008E0D9F1DA11DB11D8E839F83A887B98721
:101A4000F101808191818E0D9F1D91838083CE183D
:101A5000DF08C114D10409F087CF72C0452B462B93
:101A6000472B29F46E857F858889998906C04A8924
:101A70005B896C897D890E94DA0462307105810579
:101A8000910560F06F3FFFEF7F078F079F0709F415
:101A900041C06A8B7B8B8C8B9D8B86CF8C818068C1
:101AA0008C8350C086A597A5A0A9B1A984199509D2
:101AB000A609B709A70160E070E084179507A6079B
:101AC000B70708F0ACCFBF016E5C7F4F982F882717
:101AD000990F40E052E08A0D9B1D0E94C2009FCFEB
:101AE0004E8A5F8A688E798E8E819F81917020E008
:101AF00032E0281B390B76012C153D0508F47901DD
:101B00004E895F89688D798D888199810E94110441
:101B1000892B29F08C8180688C8381E016C08E81AE
:101B20009F81A885B9859170AA27BB27C296688135
:101B30007981680F791FA701C5010E94C20072CF89
:101B400080E003C082E001C087E090E0DF91CF91A8
:101B50001F910F91FF90EF90DF90CF90BF90AF90CB
:101B60009F908F907F906F905F904F903F902F90BD
:101B700008952F923F924F925F926F927F928F9231
:101B80009F92AF92BF92CF92DF92EF92FF920F930C
:101B90001F93CF93DF93EC015B016A011901F901F7
:101BA000118210820E94DF00009709F065C18C81CC
:101BB00087FD5EC181FF5EC18A859B85AC85BD8541
:101BC000AC01BD014C0D5D1D611D711D481759070C
:101BD0006A077B0708F0A4C0C12CD12CA1C04E819C
:101BE0005F8168857985DB01CA019170AA27BB27CF
:101BF000892B8A2B8B2B09F006C1E881F981228180
:101C000021502A013B01A9E07694679457944794A8
:101C1000AA95D1F7122F142109F487C088819981E0
:101C2000FC0146A457A460A871A84E895F89688DFD
:101C3000798D441655066606770609F4BEC088807D
:101C400099804A895B896C897D89C4010E94B204AC
:101C5000611571058105910509F4B5C02B013C01A1
:101C6000410E511C611C711C7601EF2CFF24E6947F
:101C7000E114F10409F4ABC0F4018281212F30E0BA
:101C8000A701420F531F90E08417950718F47C01B9
:101C9000E21AF30A0E2DA3019201B501F40181812C
:101CA0000E94C517892B09F0C4C088819981FC0165
:101CB00046A557A560A971A9441955096609770970
:101CC0002701612C712C441555056605770570F4C4
:101CD000542F4427550FB501640F751F40E052E0A3
:101CE000C2960E94C200E881F9811482FE2CEE2483
:101CF000FF0CAE0CBF1C8E819F81A885B9858E0D0F
:101D00009F1DA11DB11D8E839F83A887B987F101F7
:101D1000808191818E0D9F1D91838083CE18DF0875
:101D2000C114D10409F05BCF24C0452B462B472BAF
:101D3000A1F46E857F858889998961157105810572
:101D4000910551F540E050E0BA01CF010E944307F0
:101D50006E877F87888B998B07C04A895B896C89DE
:101D60007D89CF010E9443076115710581059105A9
:101D700099F48E819F81A885B9854A855B856C859C
:101D80007D85481759076A077B0708F06CC08A876A
:101D90009B87AC87BD8767C0613071058105910560
:101DA00091F06F3FFFEF7F078F079F0709F441C056
:101DB0006A8B7B8B8C8B9D8B31CF0E94AF03892BE1
:101DC00009F43DCF36C08C8180688C8351C04E8130
:101DD0005F81688579858A859B85AC85BD85481737
:101DE00059076A077B0758F0C4010E94AF03892B8B
:101DF00001F5E881F98146A657A660AA71AA4E8A24
:101E00005F8A688E798E8E819F81917020E032E0AA
:101E1000281B390B76012C153D0508F479014E89F4
:101E20005F89688D798D888199810E941104892B41
:101E300029F08C8180688C8381E01DC08E819F8118
:101E4000A885B9859170AA27BB27C29628813981B8
:101E5000A701B501820F931F0E94C200E881F9819A
:101E600031E0348346CF8C8180628C8380E003C074
:101E700082E001C087E090E0DF91CF911F910F9148
:101E8000FF90EF90DF90CF90BF90AF909F908F909A
:101E90007F906F905F904F903F902F9008950F9399
:101EA0001F93CF93DF93EC010E94DF000097D9F5D9
:101EB0002C8125FF38C04A8D5B8D6C8D7D8D88818E
:101EC00099810E941104009771F50E8D1F8DF80104
:101ED0008385806283878A859B85AC85BD85848F59
:101EE000958FA68FB78F8E859F85A889B989938F87
:101EF000828FB58BA48B0E94BD00F801668B778B17
:101F0000808F918F138A128A8C818F7D8C83E881D8
:101F1000F98181E0848388819981DF91CF911F913C
:101F20000F910C944D04DF91CF911F910F91089563
:101F3000CF93DF93EC010E944F0F009711F41982A9
:101F40001882DF91CF9108952F923F924F925F9226
:101F50006F927F928F929F92AF92BF92CF92DF92B9
:101F6000EF92FF920F931F93CF93DF9300D01F92B6
:101F7000CDB7DEB71C016A017B010E94DF0000972C
:101F800009F06EC1D10114962C91149727FD64C1FC
:101F90001A968D919D910D90BC91A02D8C159D054B
:101FA000AE05BF0520F421FD02C06C017D01F101E9
:101FB000468057806084718416821782108611864D
:101FC000C114D104E104F10421F4C12CD12C760117
:101FD00016C1F10100811181D80112968C90912CCB
:101FE000A12CB12C39E0880C991CAA1CBB1C3A9579
:101FF000D1F7411451046104710409F43FC0B1E008
:102000004B1A510861087108C701B6016150710986
:1020100081099109A50194010E94281A29833A8314
:102020004B835C83C301B201A50194010E94281A6D
:1020300089819A81AB81BC8182179307A407B50778
:10204000E8F088279927DC0188199909AA09BB09B2
:10205000482259226A227B22D10116964D925D9226
:102060006D927C921997C418D508E608F708529625
:102070004D915D916D917C9155972BC0F1014685F5
:102080005785608971894115510561057105E1F434
:1020900040E050E0BA01C8010E944307AB01BC0117
:1020A000413051056105710509F496C04F3FBFEFFE
:1020B0005B076B077B0709F45DC0D1011E964D934A
:1020C0005D936D937C935197F101428B538B648B9D
:1020D000758B411551056105710509F476CF2DC049
:1020E000423051056105710508F44FC0D101ED91F1
:1020F000FC9186899789A08DB18D481759076A0789
:102100007B0708F042C0D10152964D935D936D93C9
:102110007C93559716968D919D910D90BC91A02D15
:10212000880D991DAA1DBB1DF10186839783A08789
:10213000B187C818D908EA08FB088C149D04AE04BE
:10214000BF0450F5D10114962C9114978D919C9158
:1021500021FF16C00E944307AB01BC014115510588
:1021600061057105B9F04F3FBFEF5B076B077B0758
:1021700009F0B6CFF10184818068848381E06FC06B
:102180000E94DA04AB01BC01EECFF10184818068CA
:10219000848362C075016401F10186819781A08505
:1021A000B1858C0D9D1DAE1DBF1D86839783A087B5
:1021B000B187D701C6019170AA27BB27892B8A2B2B
:1021C0008B2B09F402CF808191810E94B2046115AA
:1021D00071058105910541F4D10114968C911497F4
:1021E000806814968C9338C029E0F694E794D794CD
:1021F000C7942A95D1F7C60ED71EE81EF91EF10125
:1022000086819781A085B185AC01BD01517066279B
:102210007727452B462B472B69F046895789608DD8
:10222000718DC416D506E606F70621F0C68AD78A50
:10223000E08EF18EF10142855385648575854817DE
:1022400059076A077B0750F482879387A487B5876D
:1022500084818062848302C082E001C080E090E0DB
:102260000F900F900F900F90DF91CF911F910F91D2
:10227000FF90EF90DF90CF90BF90AF909F908F90A6
:102280007F906F905F904F903F902F900895CF92E6
:10229000DF92EF92FF920F931F93CF93DF93CDB70F
:1022A000DEB768970FB6F894DEBF0FBECDBF988F2C
:1022B0008F8B7B016A0140E0BE016F5F7F4FCE01D3
:1022C00047960E943B018C01892B09F050C0E11414
:1022D000F10439F11F82188619861A86CE010196FB
:1022E0000E94A605009709F041C0CE0101960E9408
:1022F0001A09009789F46B897C894BE050E0C7018B
:102300000E94C200F7013B961082EE15FF0549F0CE
:1023100082918032C9F305C08430910539F5F70107
:102320001082C114D10419F189819A81FC01468D72
:10233000578D60A171A10E9411048C01892BB9F401
:10234000E981FA818081833019F087E290E002C050
:1023500083E490E0E80FF91F82A993A9A4A9B5A985
:10236000F60180839183A283B38301C08C01C801ED
:1023700068960FB6F894DEBF0FBECDBFDF91CF9148
:102380001F910F91FF90EF90DF90CF900895CF9223
:10239000DF92EF92FF920F931F93CF93DF93CDB70E
:1023A000DEB7A3970FB6F894DEBF0FBECDBF9BA3D9
:1023B0008AA341E0BE016F5F7F4FCE0182960E94EB
:1023C0003B01009709F0B1C01F8A8AA19BA16C0153
:1023D0009C01B901681B790BD9014D919D014111F7
:1023E000F8CFFB01E80FF91FBF01681B790BE81755
:1023F000F90761F41F82188619861A86CE010196A4
:102400000E94A605009709F090C030C022912032AA
:1024100059F3FE0177968F0120E030E0D6018D91CF
:102420006D0190E0AC01415651094A31510510F45B
:1024300080970BC08038910528F089579E4FDC01AA
:102440008C9190E0009709F475C04EEEE42E42E0C6
:10245000F42ED7014D917D01442309F468C0042E68
:10246000000C550B48175907A1F764C0CE0101961F
:102470000E941A090097F9F42F898B899C892223DD
:1024800081F04BE050E0BE01695E7F4F0E94C200C8
:102490000E94BD00EB89FC89668B778B808F918FC2
:1024A00003C025EEFC01208389819A8121E0DC01B3
:1024B00014962C9335C084309105B9F58F89882303
:1024C00091F1CE0101960E94A605009771F5CE010B
:1024D00001960E945309009741F5EB89FC89CF01D1
:1024E0008096E817F90711F01192FBCF4BE050E00E
:1024F000BE01695E7F4F8B899C890E94C200EB8977
:10250000FC8988E083870E94BD00EB89FC89668B8B
:10251000778B808F918F89819A8121E0FC012483C0
:102520000E944D0402C020E006C0282F1BC02B30A3
:10253000310519F426E090E015C02F5F3F4FD80118
:102540008D938D012617370708F468CFDF01A20F9E
:10255000B31F20E2CD018E1B9F0B0B9708F04ACFD3
:102560002D93F8CF822FA3960FB6F894DEBF0FBE3F
:10257000CDBFDF91CF911F910F91FF90EF90DF9032
:10258000CF9008958F929F92AF92BF92CF92DF9299
:10259000EF92FF920F931F93CF93DF9300D01F9280
:1025A000CDB7DEB77C014A018C01C12CD12C5B0177
:1025B00081E0A81AB108CA14DB04D4F49E012F5F8D
:1025C0003F4F41E050E0BE016D5F7F4FC4010E946C
:1025D0007A0C89819A81019759F48B810F5F1F4F83
:1025E000F801319780839FEFC91AD90A8A3019F709
:1025F000F8011082CD2811F0C70102C080E090E000
:102600000F900F900F900F90DF91CF911F910F912E
:10261000FF90EF90DF90CF90BF90AF909F908F9002
:102620000895CF93DF9300D01F921F92CDB7DEB7EE
:10263000FB0189839E012C5F3F4F41E050E0BE01CA
:102640006F5F7F4FCF010E94B90D8C819D810197F3
:1026500019F08FEF9FEF02C081E090E00F900F9094
:102660000F900F900F90DF91CF910895EF92FF920E
:102670000F931F93CF93DF938C017B01EC01CE016D
:10268000801B910B2991222341F0B701822F0E94D8
:1026900011138F3F2FEF920791F7DF91CF911F9189
:1026A0000F91FF90EF9008952F923F924F925F927B
:1026B0006F927F928F929F92AF92BF92CF92DF9252
:1026C000EF92FF920F931F93CF93DF93CDB7DEB7B7
:1026D0006B970FB6F894DEBF0FBECDBFA9A8BAA8FE
:1026E000EBA9FCA97E0125E3E20EF11C80E090E05D
:1026F0001C8A1B8AAE014F5F5F4F5A8B498B1F01AB
:102700005FEF251A350A2081222309F477C125328B
:1027100061F0B501822F0E9411138F3FAFEF9A072E
:1027200009F460C181E090E05DC111819F01103327
:1027300029F42D5F3F4F128101E00AC01D3221F0C4
:102740002E5F3F4F00E004C02D5F3F4F128102E03B
:10275000F901812C912C1F0120ED210F2A3080F4EA
:10276000BAE0B89D9001B99D300D11244901810E48
:10277000911C17FD9A9420E3821A91081191EBCFD6
:10278000212F2F7D2C3429F404603FEF231A330AC4
:102790001081112309F432C18FE9810F8A3118F4B5
:1027A00020EE210F01C0212F2F34E1F054F4233407
:1027B00009F450C0243409F460C0223409F45BC029
:1027C00055C0253509F459C0283509F44DC02335C5
:1027D00009F04CC0F7016080718042E0E40EF11C0A
:1027E000F30102C038E04AC0CF0186199709219150
:1027F0002111FACF6C0101FD11C000E010E06C0165
:102800005FEFC51AD50A8815990550F4B50180E225
:102810000E941113080F191FC601F1CF00E010E04C
:10282000B501C3010E943613080F191FC814D9043B
:1028300050F4B50180E20E941113080F191FAFEF89
:10284000CA1ADA0AF3CF8F3FBFEF9B0709F4CAC059
:10285000C801C8C087010E5F1F4FB501F701808115
:102860000E9411137801BEC030E108C0B501812F6C
:102870000E941113B7C032E001C03AE002FF0BC062
:10288000F7016081718182819381F4E0EF0EF11C88
:10289000243409F516C0A7014E5F5F4F243449F474
:1028A000D7018D919C91BC01990F880B990B7A01EE
:1028B00008C0F70180819181BC0180E090E07A013D
:1028C0000AC097FF08C090958095709561957F4FDD
:1028D0008F4F9F4F0860AE014F5F5F4F5E8B4D8BF8
:1028E000C12CD12C432E512C612C712C4F8A588E27
:1028F000698E7A8E2F89388D498D5A8D0E94281ABB
:102900002B013C01CA01B901AAE04A165104610435
:10291000710410F4E42D06C0183711F0E7E001C08F
:10292000E7E2E40DBFEFCB1ADB0AE05DAD89BE89BB
:10293000ED93BE8BAD8B232B242B252B21F0B0E107
:10294000CB16D104B9F603FF0DC0E1E0F0E0EC0FC7
:10295000FD1FEC0DFD1D8DE2482E408296012F5F7C
:102960003F4F690100FD02C020E201C020E33601B3
:10297000412C512C01FD11C083010F5F1F4F6814C2
:10298000790450F4B501822F2B8F0E941113480E49
:10299000591E38012B8DF0CF380141E050E04C0F2B
:1029A0005D1FC40ED51EB501D6018E916D010E942A
:1029B0001113480E591EE989FA89CE16DF0699F7D8
:1029C0006814790450F4B50180E20E941113480E96
:1029D000591EFFEF6F1A7F0AF3CF8F3F2FEF920739
:1029E00009F0C2014B885C88480E591E5C8A4B8AEC
:1029F0008F3F2FEF920711F0F10181CE8F3F3FEF14
:102A0000930711F08B899C896B960FB6F894DEBF03
:102A10000FBECDBFDF91CF911F910F91FF90EF902F
:102A2000DF90CF90BF90AF909F908F907F906F90EE
:102A30005F904F903F902F900895FC01680F791F91
:102A4000919197FF02C02A9A01C02A98299A299841
:102A500096FF02C02A9A01C02A98299A299895FFC0
:102A600002C02A9A01C02A98299A299894FF02C084
:102A70002A9A01C02A98299A299893FF02C02A9A73
:102A800001C02A98299A299892FF02C02A9A01C067
:102A90002A98299A299891FF02C02A9A01C02A9857
:102AA000299A299890FF02C02A9A01C02A98299A47
:102AB0002998E617F70721F608952A9AFC01680F6E
:102AC000791F93B1299A299893FB992790F9990F27
:102AD0001B999F5F299A2998990F1B999F5F299AA3
:102AE0002998990F1B999F5F299A2998990F1B99EB
:102AF0009F5F299A2998990F1B999F5F299A299876
:102B0000990F1B999F5F299A2998990F1B999F5F8D
:102B1000299A29989193E617F70799F60895CF9384
:102B2000DF931F92CDB7DEB75E9A61E070E0CE0111
:102B300001960E945D150F90DF91CF9108950F933C
:102B40001F93CF93DF931F92CDB7DEB708E813E151
:102B500061E070E0CE0101960E945D1589818F3F92
:102B600049F08FE891E00197F1F700C000000150B3
:102B7000110971F781E090E0012B11F480E090E001
:102B80000F90DF91CF911F910F910895CF93DF9315
:102B900000D0CDB7DEB75E9861E070E0CE0101965F
:102BA0000E945D150E949F15009739F48A839B83CC
:102BB0000E948F158A819B8102C081E090E00F9076
:102BC0000F900F90DF91CF910895DF92EF92FF92D7
:102BD0000F931F93CF93DF93CDB7DEB727970FB631
:102BE000F894DEBF0FBECDBF182F042FF52EE62EB2
:102BF000D72E87FF09C040E050E0BA0187E30E946A
:102C0000E5158230A0F51F770E948F150E94C6152A
:102C1000892B61F1812F80648983DA82EB82FC82C7
:102C20000D83112321F0183021F081E003C085E9E4
:102C300001C087E88E8366E070E0CE0101960E94B5
:102C40001D151C3031F461E070E0CE0107960E9442
:102C50005D151AE061E070E0CE0107960E945D15F7
:102C60008F8187FF04C01150A9F701C08FEF27960D
:102C70000FB6F894DEBF0FBECDBFDF91CF911F918D
:102C80000F91FF90EF90DF900895CF92DF92EF9237
:102C9000FF920F931F93CF93DF931F921F92CDB795
:102CA000DEB77C016B0108EE13E061E070E0CE015D
:102CB00001960E945D1589818F3F81F089818E3F49
:102CC000B9F4B601C7010E945D1562E070E0CE0163
:102CD00001960E945D1581E090E00CC08FE891E0C4
:102CE0000197F1F700C0000001501109F1F6E6CF9D
:102CF00080E090E00F900F90DF91CF911F910F91A6
:102D0000FF90EF90DF90CF900895EF92FF921F9386
:102D1000CF93DF931F921F92CDB7DEB77C01162FA2
:102D20000E949F15009731F1198361E070E0CE0198
:102D300001960E941D151D3FD9F060E072E0C701A9
:102D40000E941D1562E070E0CE0101960E945D15A3
:102D500061E070E0CE0101960E945D1589818F715E
:102D600031E020E0853009F030E0832F922F02C05F
:102D700081E090E00F900F90DF91CF911F91FF9035
:102D8000EF900895811103C080910002089581E0C1
:102D90000895EF92FF920F931F93CF93DF9300D08C
:102DA0001F92CDB7DEB781116DC08FE39CE901970B
:102DB000F1F700C00000569A5E9A219A2998229A4B
:102DC0001AE061E070E0CE0101960E945D1511509D
:102DD000C1F740E050E0BA0180E00E94E515813083
:102DE00009F07AC04AEA51E060E070E088E00E94B1
:102DF000E515813019F564E070E0CE0101960E947E
:102E00005D158B81813009F067C08C818A3A09F0A9
:102E100063C008EE13E040E050E060E070E489EA4F
:102E20000E94E515882381F18FE99FE00197F1F772
:102E300000C000000150110971F74EC040E050E0A1
:102E4000BA0189EA0E94E515823018F001E011E02C
:102E500002C009EA12E088EEE82E83E0F82E40E096
:102E600050E0BA01802F0E94E515882361F18FE9B7
:102E70009FE00197F1F700C0000091E0E91AF10826
:102E800071F72AC083E02AC040E050E0BA018AE32B
:102E90000E94E515811120C064E070E0CE0101962A
:102EA0000E945D15898186FD02C014E001C01CE00E
:102EB0001093020301E0111100E0009300020E9450
:102EC0008F15802F0BC040E052E060E070E080E1A1
:102ED0000E94E515882361F310E0EACF0F900F9070
:102EE0000F900F90DF91CF911F910F91FF90EF9076
:102EF00008950F93CF93DF93EB01BA01A9018111DC
:102F000003C08091000201C081E080FD38C0809143
:102F1000020383FD07C089E0440F551F661F771F1A
:102F20008A95D1F7013071F481E10E94E515811194
:102F30001EC060E072E0CE010E944516892BB9F0F8
:102F400000E015C082E10E94E515811110C060E02B
:102F500072E0CE010E944516892B19F0DE5F015008
:102F6000B1F740E050E0BA018CE00E94E5150E9404
:102F70008F1581E090E0011104C080E002C083E081
:102F800090E0DF91CF910F910895CF92DF92EF9271
:102F9000FF920F93CF93DF93EB0169017A018111C7
:102FA00003C08091000201C081E080FD45C0809196
:102FB000020383FD07C099E0CC0CDD1CEE1CFF1C56
:102FC0009A95D1F7013079F4B701A60188E10E9402
:102FD000E515811129C06EEFCE010E948516892B5F
:102FE00019F100E021C0867039F0402F50E060E018
:102FF00070E087E90E94E515B701A60189E10E940A
:10300000E515811111C06CEFCE010E948516892B48
:1030100019F0DE5F0150B9F76DEF80E090E00E949B
:103020008516892B09F401E00E948F1581E090E05C
:10303000011104C080E002C083E090E0DF91CF91F5
:103040000F91FF90EF90DF90CF9008950F931F9313
:10305000CF93DF93CDB7DEB760970FB6F894DEBF9E
:103060000FBECDBF811103C08091000201C081E07D
:1030700080FD83C08A01613091F040F0633009F037
:1030800076C080E890E0A0E0B0E06AC00E94C6157B
:1030900001E010E0892B09F46CC000E06AC040E058
:1030A00050E0BA0189E00E94E515882311F001E0A3
:1030B0005FC060E170E0CE0101960E944516892B49
:1030C000B1F39981929596959695937088854985E7
:1030D0002A859130E1F48F7390E0A0E0B0E0DC014C
:1030E000992788270196A11DB11D50E0542F442730
:1030F000BA01620F711D860F971FA11DB11D7AE0E5
:10310000880F991FAA1FBB1F7A95D1F729C0429536
:10311000469546954370F4E08F9FC0011124840FBB
:10312000911D01964F81437050E0542F4427550F55
:10313000550F840F951FA0E0B0E03E81432F4F70E4
:103140003B85331F3327331F340F2370220F230F88
:10315000275004C0880F991FAA1FBB1F2A95D2F7BA
:10316000F80180839183A283B38300E001C004E06F
:1031700010E00E948F15C80102C083E090E06096C5
:103180000FB6F894DEBF0FBECDBFDF91CF911F9178
:103190000F9108951092C50089E18093C4001092A8
:1031A000C00088E18093C10086E18093C200089549
:1031B0008091C00087FFFCCF8091C6000895809168
:1031C000C00087FF03C00E94D818F9CF08959091DE
:1031D000C00095FFFCCF8093C6000895CF93DF9386
:1031E000EC018991882319F00E94E718FACFDF914A
:1031F000CF910895CF93DF93EC01CE01FE0124918E
:10320000222331F02196FC0184910E94E718F5CF2A
:10321000DF91CF910895CF92DF92EF92FF920F93BB
:103220001F93CF93DF93CDB7DEB7CA57D1090FB63F
:10323000F894DEBF0FBECDBF87EA91E60197F1F7A4
:1032400000C000000E94CA1865E073E080E00E94A0
:10325000710980E290E00E94641A909304038093C5
:1032600003034AE067E872E00E948909892B99F01C
:1032700080910303909104030E94980F42E167E854
:1032800072E080910303909104030E948909892BC5
:1032900009F07CC031C000E010E090E9C92E92E056
:1032A000D92E7E0195E6E90EF11C1F930F93DF9254
:1032B000CF92FF92EF920E94911BF70101900020A4
:1032C000E9F73197AF014E195F099E0127583F4F2B
:1032D000B70180910303909104030E94B90D0F5F21
:1032E0001F4F0F900F900F900F900F900F900C3971
:1032F000E1E01E07D1F6BCCF809103039091040357
:10330000FC0142855385648575850E94A40F892B35
:10331000E9F59E0127583F4F4AE150E062EA72E02A
:1033200080910303909104030E94B90D00E010E026
:103330008DEBC82E82E0D82E7E01F5E6EF0EF11C53
:103340001F930F93DF92CF92FF92EF920E94911BF7
:10335000F70101900020E9F73197AF014E195F099D
:103360009E0127583F4FB7018091030390910403BA
:103370000E94B90D0F5F1F4F0F900F900F900F908D
:103380000F900F900C3981E01807D1F6809103035C
:10339000909104030E94980F41E067E872E08091E9
:1033A0000303909104030E94890900E010E0892B37
:1033B00019F54091030350910403FA01C680D780A8
:1033C000E084F18482859385A485B585C816D906E5
:1033D000EA06FB0689F064E670E0CE0101960E94E1
:1033E000C212CE0101960E94EE188FE992E00E946F
:1033F000EE180F5F1F4FDDCF1F930F938EEC92E0FF
:103400009F938F938E010B591F4F1F930F930E9411
:10341000911BC8010E94EE18809103039091040350
:103420000E94980F0F900F900F900F900F900F9099
:10343000C658DF4F0FB6F894DEBF0FBECDBFDF9189
:10344000CF911F910F91FF90EF90DF90CF90089553
:10345000A1E21A2EAA1BBB1BFD010DC0AA1FBB1F98
:10346000EE1FFF1FA217B307E407F50720F0A21B0A
:10347000B30BE40BF50B661F771F881F991F1A9477
:1034800069F760957095809590959B01AC01BD01A1
:10349000CF0108950E94551AA59F900DB49F900DDD
:1034A000A49F800D911D11240895A29FB001B39F88
:1034B000C001A39F700D811D1124911DB29F700D3D
:1034C000811D1124911D0895CF93DF9382309105C2
:1034D00010F482E090E0E0913905F0913A0520E0A7
:1034E00030E0C0E0D0E0309711F1408151814817C1
:1034F0005907C0F04817590761F4828193812097DA
:1035000019F09B838A832BC090933A0580933905E9
:1035100026C02115310519F04217530718F49A01F6
:10352000BE01DF01EF010280F381E02DDCCF211528
:10353000310509F1281B390B2430310590F412961E
:103540008D919C9113976115710521F0FB01938377
:10355000828304C090933A0580933905FD01329629
:1035600044C0FD01E20FF31F819391932250310972
:103570002D933C933AC02091370530913805232B89
:1035800041F42091030230910402309338052093D6
:10359000370520910102309102022115310541F4D5
:1035A0002DB73EB74091050250910602241B350B02
:1035B000E0913705F0913805E217F307A0F42E1BD0
:1035C0003F0B2817390778F0AC014E5F5F4F241787
:1035D000350748F04E0F5F1F50933805409337056D
:1035E0008193919302C0E0E0F0E0CF01DF91CF91B1
:1035F00008950F931F93CF93DF93009709F48CC026
:10360000FC013297138212820091390510913A051C
:103610000115110581F420813181820F931F2091C2
:103620003705309138052817390779F5F0933805B3
:10363000E093370571C0D80140E050E0AE17BF07F6
:1036400050F412962D913C911397AD01211531053F
:1036500009F1D901F3CF9D01DA013383228360811F
:103660007181860F971F8217930769F4EC012881F7
:103670003981260F371F2E5F3F4F318320838A8188
:103680009B8193838283452B29F4F0933A05E09341
:10369000390542C01396FC93EE931297ED014991C0
:1036A00059919E01240F351FE217F30771F48081B1
:1036B0009181840F951F029611969C938E9382811F
:1036C000938113969C938E931297E0E0F0E0D801DB
:1036D00012968D919C911397009719F0F8018C0127
:1036E000F6CF8D919C9198012E5F3F4F820F931FD3
:1036F00020913705309138052817390769F430973C
:1037000029F410923A051092390502C013821282F0
:103710001093380500933705DF91CF911F910F91DA
:1037200008950F931F93CF93DF93CDB7DEB72E97F6
:103730000FB6F894DEBF0FBECDBF0E891F8986E09D
:103740008C831A8309838FEF9FE79E838D83AE015D
:10375000465E5F4F688D798DCE0101960E94C11B38
:103760002F813885F801E20FF31F10822E960FB6D5
:10377000F894DEBF0FBECDBFDF91CF911F910F91A7
:1037800008952F923F924F925F926F927F928F9205
:103790009F92AF92BF92CF92DF92EF92FF920F93E0
:1037A0001F93CF93DF93CDB7DEB72C970FB6F89466
:1037B000DEBF0FBECDBF7C016B018A01FC01178209
:1037C0001682838181FFBDC1CE0101964C01F701B4
:1037D0009381F60193FD859193FF81916F01882379
:1037E00009F4ABC1853239F493FD859193FF819142
:1037F0006F01853229F4B70190E00E94D21DE7CF16
:10380000512C312C20E02032A0F48B3269F030F4BE
:10381000803259F0833269F420612CC08D3239F046
:10382000803339F4216026C02260246023C02860E0
:1038300021C027FD27C030ED380F3A3078F426FF3D
:1038400006C0FAE05F9E300D1124532E13C08AE0AB
:10385000389E300D1124332E20620CC08E3221F49C
:1038600026FD6BC1206406C08C3611F4206802C0AE
:10387000883641F4F60193FD859193FF81916F01A4
:103880008111C1CF982F9F7D9554933028F40C5F00
:103890001F4FFFE3F9830DC0833631F0833771F09A
:1038A000833509F05BC022C0F801808189830E5FF7
:1038B0001F4F44244394512C540115C03801F2E0A9
:1038C0006F0E711CF801A080B18026FF03C0652D2A
:1038D00070E002C06FEF7FEFC5012C870E94C71D0B
:1038E0002C0183012C852F77222E17C03801F2E09E
:1038F0006F0E711CF801A080B18026FF03C0652DFA
:1039000070E002C06FEF7FEFC5012C870E94BC1DE5
:103910002C012C852068222E830123FC1BC0832DC3
:1039200090E048165906B0F4B70180E290E00E949A
:10393000D21D3A94F4CFF50127FC859127FE8191A1
:103940005F01B70190E00E94D21D31103A94F1E07E
:103950004F1A51084114510471F7E5C0843611F033
:10396000893639F5F80127FF07C0608171818281AE
:1039700093810C5F1F4F08C060817181072E000C7E
:10398000880B990B0E5F1F4F2F76722E97FF09C081
:1039900090958095709561957F4F8F4F9F4F2068D0
:1039A000722E2AE030E0A4010E940A1EA82EA81858
:1039B00044C0853729F42F7EB22E2AE030E025C09E
:1039C000F22FF97FBF2E8F36C1F018F4883579F0C9
:1039D000B4C0803719F0883721F0AFC02F2F206195
:1039E000B22EB4FE0DC08B2D8460B82E09C024FF0A
:1039F0000AC09F2F9660B92E06C028E030E005C0AF
:103A000020E130E002C020E132E0F801B7FE07C05B
:103A100060817181828193810C5F1F4F06C060813C
:103A2000718180E090E00E5F1F4FA4010E940A1E8A
:103A3000A82EA818FB2DFF777F2E76FE0BC0372D02
:103A40003E7FA51450F474FE0AC072FC08C0372DE6
:103A50003E7E05C0BA2C372D03C0BA2C01C0B52C50
:103A600034FF0DC0FE01EA0DF11D8081803311F499
:103A7000397E09C032FF06C0B394B39404C0832FCB
:103A8000867809F0B39433FD13C030FF06C05A2C7A
:103A9000B31418F4530C5B18B32CB31468F4B701C7
:103AA00080E290E03C870E94D21DB3943C85F5CF24
:103AB000B31410F43B1801C0312C34FF12C0B7010D
:103AC00080E390E03C870E94D21D3C8532FF17C006
:103AD00031FD03C088E790E002C088E590E0B701BF
:103AE0000CC0832F867859F031FF02C08BE201C0F1
:103AF00080E237FD8DE2B70190E00E94D21DA5144F
:103B000038F4B70180E390E00E94D21D5A94F7CFB9
:103B1000AA94F401EA0DF11D8081B70190E00E94A2
:103B2000D21DA110F5CF332009F451CEB70180E2A8
:103B300090E00E94D21D3A94F6CFF70186819781DA
:103B400002C08FEF9FEF2C960FB6F894DEBF0FBE2A
:103B5000CDBFDF91CF911F910F91FF90EF90DF903C
:103B6000CF90BF90AF909F908F907F906F905F901D
:103B70004F903F902F900895FC0105906150704048
:103B80000110D8F7809590958E0F9F1F0895FC0126
:103B90006150704001900110D8F7809590958E0F7C
:103BA0009F1F08950F931F93CF93DF93FB012381F2
:103BB00021FD03C08FEF9FEF28C022FF16C0468172
:103BC0005781248135814217530744F4A081B18184
:103BD0009D012F5F3F4F318320838C932681378156
:103BE0002F5F3F4F3783268310C0EB01092F182F1B
:103BF0000084F185E02D1995892BE1F68E819F8156
:103C000001969F838E83812F902FDF91CF911F91FB
:103C10000F910895FA01AA27283051F1203181F13E
:103C2000E8946F936E7F6E5F7F4F8F4F9F4FAF4FC4
:103C3000B1E03ED0B4E03CD0670F781F891F9A1FD7
:103C4000A11D680F791F8A1F911DA11D6A0F711D8B
:103C5000811D911DA11D20D009F468943F912AE097
:103C6000269F11243019305D3193DEF6CF0108957F
:103C7000462F4770405D4193B3E00FD0C9F7F6CFB0
:103C8000462F4F70405D4A3318F0495D31FD405278
:103C9000419302D0A9F7EACFB4E0A695979587950E
:103CA00077956795BA95C9F70097610571050895ED
:103CB0009B01AC010A2E0694579547953795279599
:103CC000BA95C9F7620F731F841F951FA01D089531
:043CD000F894FFCF96
:103CD4000100003B052000809A90418E418F804571
:103CE40045454949498E8F9092924F994F55555960
:103CF400999A9B9C9D9E9F41494F55A5A5A6A7A80F
:103D0400A9AAABAC21AEAFB0B1B2B3B4B5B6B7B833
:103D1400B9BABBBCBDBEBFC0C1C2C3C4C5C6C7C897
:103D2400C9CACBCCCDCECFD0D1D2D3D4D5D6D7D887
:103D3400D9DADBDCDDDEDFE0E1E2E3E4E5E6E7E877
:103D4400E9EAEBECEDEEEFF0F1F2F3F4F5F6F7F867
:103D5400F9FAFBFCFDFEFF646174612E7478740053
:103D640054686973206973206C696E652025640A40
:103D74000D00617070656E64696E67206E657720F2
:103D8400696E666F726D6174696F6E0A005468695A
:103D940073206973206C696E652025640A002564AC
:103DA400206C696E657320696E2066696C650022FB
:103DB4002A2B2C3A3B3C3D3E3F5B5D7C7F00222A14
:0E3DC4002B2C2E3A3B3C3D3E3F5B5D7C7F004E
:00000001FF
