:100000000C949A000C94BB000C94BB000C94BB00A5
:100010000C94BB000C94BB000C94BB000C94BB0074
:100020000C94BB000C94BB000C94BB000C94BB0064
:100030000C94BB000C94BB000C94BB000C94BB0054
:100040000C94BB000C94BB000C94BB000C94BB0044
:100050000C94BB000C94BB000C94BB000C94BB0034
:100060000C94BB000C94BB000C94BB000C94BB0024
:100070000C94BB000C94BB000C94BB000C94BB0014
:100080000C94BB000C94BB000C94BB000C94BB0004
:100090000C94BB000C94BB000C94BB000C94BB00F4
:1000A0000C94BB000C94BB000C94BB000C94BB00E4
:1000B0000C94BB000C94BB000C94BB000C94BB00D4
:1000C0000C94BB000C94BB000C94BB000C94BB00C4
:1000D0000C94BB000C94BB000C94BB000C94BB00B4
:1000E0000C94BB000C94BB000C94BB000C94BB00A4
:1000F0000C94BB000C94BB000C94BB000C94BB0094
:100100000C94BB000C94BB000C94BB000C94BB0083
:100110000C94BB000C94BB000C94BB000C94BB0073
:100120000C94BB000C94BB000C94BB000C94BB0063
:100130000C94BB0011241FBECFEFD1E8DEBFCDBFB2
:1001400000E00CBF12E0A0E0B2E0E6E5FCE000E079
:100150000BBF02C007900D92A037B107D9F722E07C
:10016000A0E7B2E001C01D92A738B207E1F70E94F4
:10017000EF020C9429060C9400001092C50089E14E
:100180008093C4001092C00088E18093C10086E192
:100190008093C20008958091C00087FFFCCF8091BA
:1001A000C60008958091C00087FF03C00E94CB0065
:1001B000F9CF08959091C00095FFFCCF8093C600C1
:1001C0000895CF93DF93EC018991882319F00E9461
:1001D000DA00FACFDF91CF910895CF93DF93EC014E
:1001E000CE01FE012491222331F02196FC0184915D
:1001F0000E94DA00F5CFDF91CF9108951092B900F7
:1002000088E48093B800089594EA9093BC0040EA93
:1002100056E861E070E09091BC0097FD07C0415046
:10022000510961097109B9F781E008959091B90008
:10023000987F983011F09031B9F78093BB0084E833
:100240008093BC0080EA96E8A1E0B0E02091BC0079
:1002500027FD05C00197A109B109C1F7E5CF80913C
:10026000B900887F883111F08034F1F680E008957C
:1002700024EA34E844E92093BC009091BC0097FF45
:10028000FCCF9091B900987F983011F0903199F798
:100290008093BB003093BC009091BC0097FFFCCFD3
:1002A0009091B900987F903211F0983539F44093CD
:1002B000BC009091BC0094FDFCCFDDCF089584E993
:1002C0008093BC008091BC0084FDFCCF0895809396
:1002D000BB0084E88093BC008091BC0087FFFCCF0A
:1002E000089584EC8093BC008091BC0087FFFCCF14
:1002F0008091BB00089584E88093BC008091BC008D
:1003000087FFFCCF8091BB000895CF93DF931F92AE
:100310001F92CDB7DEB74A8369830E9404016981C9
:10032000862F0E9467014A81842F0E9467010F90E7
:100330000F90DF91CF910C945F011F93CF93DF93C8
:100340001F92CDB7DEB7182F69830E94040169811F
:10035000862F0E946701812F81600E9404010E9404
:100360007B0189830E945F0189810F90DF91CF918A
:100370001F910895AF92BF92CF92DF92EF92FF92BA
:100380000F931F93CF93DF9300D0CDB7DEB7182F15
:10039000022F4A835B8369830E9404016981862F4F
:1003A0000E946701812F81600E9404014A81A42E6E
:1003B0005B81B52E10E0E12CF12C680181E0C81AB8
:1003C000D108E016F10689F0EC14FD0419F40E943E
:1003D0007B0102C00E947101F5018083FFEFEF1ADB
:1003E000FF0A8FEFA81AB80AECCF0F900F900F906A
:1003F000DF91CF911F910F91FF90EF90DF90CF9001
:10040000BF90AF900C945F011F93CF93DF9300D008
:10041000CDB7DEB7122F4B836A8389830E94FE001B
:100420008981282F30E030937102209370024B8134
:1004300040937302109372026A81615041534830B5
:1004400030F4E42FF0E0E95FFD4F208101C020E0AF
:10045000E4EFE10FE73028F4F0E0E050FE4F908148
:1004600001C090E030E2639FB00111246061622B13
:1004700044E0949F90011124262B122F10681F92A4
:100480001F931F928F938FE092E09F938F9384E747
:1004900092E09F938F930E94520384E792E00E9420
:1004A000E100809170020E94040184E292E00E94C7
:1004B000E100812F0E94670180E392E00E94E10049
:1004C0000E945F010FB6F894DEBF0FBECDBF82E47D
:1004D00092E00F900F900F90DF91CF911F910C94AD
:1004E000E100809172029091730222E0829F900D50
:1004F000112421E030E0A90102C0440F551F9A9554
:10050000E2F7CA010895809170020E94380180E8E4
:100510000E9467010C945F010F931F93CF93DF93A9
:100520001F92CDB7DEB78091700281600E940401F6
:100530000E947B01182F0E947B01212F30E0322F77
:1005400022278901082B0E94710189830E945F0183
:10055000898187FD33C00F3F8FE7180729F48FEF9C
:100560009FEFAFEFBFE708C0011580E8180779F4E7
:1005700080E090E0A0E0B0E8809383029093840252
:10058000A0938502B093860281E090E019C00E949A
:100590007102AC0128EE33E0D8010E941A039A01DF
:1005A000550F440B550B0E94FB022093830230939E
:1005B00084024093850250938602E6CF80E090E06B
:1005C0000F90DF91CF911F910F9108956091830259
:1005D00070918402809185029091860208950E9414
:1005E000BD0020E148E060E089E60E94040286E563
:1005F00092E00C94E100052E97FB1EF400940E94FB
:10060000120357FD07D00E94210307FC03D04EF4CC
:100610000C94120350954095309521953F4F4F4FC4
:100620005F4F089590958095709561957F4F8F4F9E
:100630009F4F08950E944303B7FF0895821B930BB9
:100640000895A1E21A2EAA1BBB1BFD010DC0AA1F13
:10065000BB1FEE1FFF1FA217B307E407F50720F02B
:10066000A21BB30BE40BF50B661F771F881F991FA6
:100670001A9469F760957095809590959B01AC01EF
:10068000BD01CF010895A29FB001B39FC001A39FF8
:10069000700D811D1124911DB29F700D811D1124BB
:1006A000911D08950F931F93CF93DF93CDB7DEB7BE
:1006B0002E970FB6F894DEBF0FBECDBF0E891F89EF
:1006C00086E08C831A8309838FEF9FE79E838D8357
:1006D000AE01465E5F4F688D798DCE0101960E9416
:1006E00082032F813885F801E20FF31F10822E96C6
:1006F0000FB6F894DEBF0FBECDBFDF91CF911F9133
:100700000F9108952F923F924F925F926F927F9236
:100710008F929F92AF92BF92CF92DF92EF92FF9211
:100720000F931F93CF93DF93CDB7DEB72C970FB600
:10073000F894DEBF0FBECDBF7C016B018A01FC01C6
:1007400017821682838181FFBDC1CE0101964C01C3
:10075000F7019381F60193FD859193FF81916F01DC
:10076000882309F4ABC1853239F493FD859193FF59
:1007700081916F01853229F4B70190E00E949305C1
:10078000E7CF512C312C20E02032A0F48B3269F0DD
:1007900030F4803259F0833269F420612CC08D32FC
:1007A00039F0803339F4216026C02260246023C0F0
:1007B000286021C027FD27C030ED380F3A3078F48B
:1007C00026FF06C0FAE05F9E300D1124532E13C0A1
:1007D0008AE0389E300D1124332E20620CC08E32F8
:1007E00021F426FD6BC1206406C08C3611F420680C
:1007F00002C0883641F4F60193FD859193FF819103
:100800006F018111C1CF982F9F7D9554933028F4AB
:100810000C5F1F4FFFE3F9830DC0833631F0833740
:1008200071F0833509F05BC022C0F80180818983B3
:100830000E5F1F4F44244394512C540115C03801BE
:10084000F2E06F0E711CF801A080B18026FF03C09A
:10085000652D70E002C06FEF7FEFC5012C870E940D
:1008600088052C0183012C852F77222E17C0380193
:10087000F2E06F0E711CF801A080B18026FF03C06A
:10088000652D70E002C06FEF7FEFC5012C870E94DD
:100890007D052C012C852068222E830123FC1BC0A2
:1008A000832D90E048165906B0F4B70180E290E03D
:1008B0000E9493053A94F4CFF50127FC859127FE19
:1008C00081915F01B70190E00E94930531103A9445
:1008D000F1E04F1A51084114510471F7E5C0843614
:1008E00011F0893639F5F80127FF07C06081718161
:1008F000828193810C5F1F4F08C060817181072E38
:10090000000C880B990B0E5F1F4F2F76722E97FFEE
:1009100009C090958095709561957F4F8F4F9F4F3F
:100920002068722E2AE030E0A4010E94CB05A82E98
:10093000A81844C0853729F42F7EB22E2AE030E073
:1009400025C0F22FF97FBF2E8F36C1F018F48835FD
:1009500079F0B4C0803719F0883721F0AFC02F2F5D
:100960002061B22EB4FE0DC08B2D8460B82E09C05C
:1009700024FF0AC09F2F9660B92E06C028E030E001
:1009800005C020E130E002C020E132E0F801B7FE0E
:1009900007C060817181828193810C5F1F4F06C007
:1009A0006081718180E090E00E5F1F4FA4010E9482
:1009B000CB05A82EA818FB2DFF777F2E76FE0BC047
:1009C000372D3E7FA51450F474FE0AC072FC08C097
:1009D000372D3E7E05C0BA2C372D03C0BA2C01C07E
:1009E000B52C34FF0DC0FE01EA0DF11D808180336E
:1009F00011F4397E09C032FF06C0B394B39404C029
:100A0000832F867809F0B39433FD13C030FF06C0FE
:100A10005A2CB31418F4530C5B18B32CB31468F4A9
:100A2000B70180E290E03C870E949305B3943C8537
:100A3000F5CFB31410F43B1801C0312C34FF12C0B1
:100A4000B70180E390E03C870E9493053C8532FF2C
:100A500017C031FD03C088E790E002C088E590E050
:100A6000B7010CC0832F867859F031FF02C08BE2AA
:100A700001C080E237FD8DE2B70190E00E9493054E
:100A8000A51438F4B70180E390E00E9493055A94CE
:100A9000F7CFAA94F401EA0DF11D8081B70190E02F
:100AA0000E949305A110F5CF332009F451CEB70170
:100AB00080E290E00E9493053A94F6CFF701868198
:100AC000978102C08FEF9FEF2C960FB6F894DEBF90
:100AD0000FBECDBFDF91CF911F910F91FF90EF908F
:100AE000DF90CF90BF90AF909F908F907F906F904E
:100AF0005F904F903F902F900895FC0105906150BA
:100B000070400110D8F7809590958E0F9F1F089523
:100B1000FC016150704001900110D8F780959095CC
:100B20008E0F9F1F08950F931F93CF93DF93FB01A9
:100B3000238121FD03C08FEF9FEF28C022FF16C045
:100B400046815781248135814217530744F4A0819F
:100B5000B1819D012F5F3F4F318320838C9326818C
:100B600037812F5F3F4F3783268310C0EB01092F5A
:100B7000182F0084F185E02D1995892BE1F68E81DF
:100B80009F8101969F838E83812F902FDF91CF913C
:100B90001F910F910895FA01AA27283051F12031B1
:100BA00081F1E8946F936E7F6E5F7F4F8F4F9F4F01
:100BB000AF4FB1E03ED0B4E03CD0670F781F891F43
:100BC0009A1FA11D680F791F8A1F911DA11D6A0F11
:100BD000711D811D911DA11D20D009F468943F91C4
:100BE0002AE0269F11243019305D3193DEF6CF01C3
:100BF0000895462F4770405D4193B3E00FD0C9F789
:100C0000F6CF462F4F70405D4A3318F0495D31FDF5
:100C10004052419302D0A9F7EACFB4E0A695979548
:100C2000879577956795BA95C9F70097610571051E
:100C300008959B01AC010A2E069457954795379568
:100C40002795BA95C9F7620F731F841F951FA01DC2
:060C50000895F894FFCFA7
:100C56000000010002000300010002000000036121
:100C66006464722D256420636F6E666967202D208B
:100C760025642000693263207374617274656400B0
:100C860069326320777269746520636F706C65746E
:100C96006500636F6E6669672068617320626565CB
:100CA6006E2073657400636F6E66696720636F6D8F
:100CB600706C65746520696E206D61696E0A00004E
:00000001FF
