:100000000C9490000C94A7000C94A7000C94A700EB
:100010000C94A7000C94A7000C94A7000C94A700C4
:100020000C94A7000C94A7000C94A7000C94A700B4
:100030000C94A7000C94A7000C94A7000C94A700A4
:100040000C94A7000C94A7000C94A7000C94A70094
:100050000C94A7000C94A7000C94A7000C94A70084
:100060000C94A7000C94A7000C94A7000C94A70074
:100070000C94A7000C94A7000C94A7000C94A70064
:100080000C94A7000C94A7000C94A7000C94A70054
:100090000C94A7000C94A7000C94A7000C94A70044
:1000A0000C94A7000C94A7000C94A7000C94A70034
:1000B0000C94A7000C94A7000C94A7000C94A70024
:1000C0000C94A7000C94A7000C94A7000C94A70014
:1000D0000C94A7000C94A7000C94A7000C94A70004
:1000E0000C94A7000C94A7000C94A7000C94A700F4
:1000F0000C94A7000C94A7000C94A7000C94A700E4
:100100000C94A7000C94A7000C94A7000C94A700D3
:100110000C94A7000C94A7000C94A7000C94A700C3
:1001200011241FBECFEFD1E4DEBFCDBF12E0A0E0AF
:10013000B2E0ECEBFBE000E00BBF02C007900D92D9
:10014000A032B107D9F70E9498020C94DC050C94F8
:1001500000001092C5008CE08093C4001092C00093
:1001600088E18093C10086E18093C2000895809168
:10017000C00087FFFCCF8091C60008958091C00029
:1001800087FF08950E94B700F9CF9091C00095FFB6
:10019000FCCF8093C6000895CF93DF93EC01899143
:1001A000811103C0DF91CF9108950E94C500F7CF60
:1001B000CF93DF93EC01CE01FE012491211103C006
:1001C000DF91CF9108952196FC0184910E94C50092
:1001D000F2CF1092B90080E28093B800089594EABB
:1001E0009093BC0040EA56E861E070E09091BC005A
:1001F00097FF1DC09091B900987F983011F0903111
:10020000D9F48093BB0084E88093BC0080EA96E830
:10021000A1E0B0E02091BC0027FF10C08091B900A0
:10022000887F883111F0803439F480E0089541509E
:10023000510961097109D1F681E008950197A10979
:10024000B10941F7F9CF24EA34E844E92093BC002E
:100250009091BC0097FFFCCF9091B900987F9830A7
:1002600011F0903199F78093BB003093BC009091CE
:10027000BC0097FFFCCF9091B900987F903211F0AD
:10028000983539F44093BC009091BC0094FDFCCFAC
:10029000DDCF089584E98093BC008091BC0084FD8B
:1002A000FCCF08958093BB0084E88093BC008091CC
:1002B000BC0087FFFCCF089584EC8093BC00809144
:1002C000BC0087FFFCCF8091BB00089584E8809339
:1002D000BC008091BC0087FFFCCF8091BB000895DB
:1002E000CF93DF9300D0CDB7DEB74A8369830E94F6
:1002F000EF006981862F0E9452014A81842F0E945B
:1003000052010F900F90DF91CF910C944A011F93EF
:10031000CF93DF931F92CDB7DEB7182F69830E946A
:10032000EF006981862F0E945201812F81600E9417
:10033000EF000E94660189830E944A0189810F9023
:10034000DF91CF911F910895AF92BF92CF92DF922C
:10035000EF92FF920F931F93CF93DF9300D01F92E2
:10036000CDB7DEB7182F022F4A835B8369830E94C3
:10037000EF006981862F0E945201812F81600E94C7
:10038000EF004A81A42E5B81B52E10E0E12CF12C08
:10039000680181E0C81AD108E016F10679F40F90DF
:1003A0000F900F90DF91CF911F910F91FF90EF90E1
:1003B000DF90CF90BF90AF900C944A01CE14DF0431
:1003C00059F40E946601F5018083FFEFEF1AFF0ADE
:1003D0008FEFA81AB80AE0CF0E945C01F4CF982FE3
:1003E00092959F708F702AE0929F800D112408953E
:1003F0006AE00E94F2028295807F890F08950C9432
:10040000E9008F929F92AF92BF92CF92DF92EF92CC
:10041000FF920F931F93CF93DF935C014B016A010F
:10042000E90164E080ED0E9487010E94EF01F40180
:10043000808365E080ED0E9487010E94EF01F50155
:10044000808366E080ED0E9487010E94EF01F60143
:10045000808362E080ED0E9487010E94EF01888323
:1004600061E080ED0E9487010E94EF01F801808326
:1004700060E080ED0E9487010E94EF01F701808318
:10048000888186FF0FC08F718883DF91CF911F9184
:100490000F91FF90EF90DF90CF90BF90AF909F9023
:1004A0008F9008958F73F0CFEF92FF920F931F9369
:1004B000CF93DF931F92CDB7DEB7182F862FF42E80
:1004C00029830E94F801482F61E080ED0E947001AD
:1004D000812F0E94F801482F60E080ED0E9470019A
:1004E0008F2D0E94F801482F62E080ED0E9470017C
:1004F0002981822F0E94F801482F64E080ED0E943C
:100500007001802F0E94F801482F65E080ED0E9465
:1005100070018E2D0E94F801482F66E080ED0F904B
:10052000DF91CF911F910F91FF90EF900C9470018C
:10053000CF93DF93CDB7DEB76A970FB6F894DEBFDF
:100540000FBECDBF0E94A9000E94FF0181E1E82EED
:1005500003E028E14AE06AE080E00E94540290E073
:10056000A92E92E0B92ECE0101966C01CE014896DB
:100570007C018E01075E1F4F9E01265E3F4FAE013C
:100580004B5E5F4FBE016A5E7F4F01970E94010282
:10059000888D1F928F93898D1F928F938A8D1F92C2
:1005A0008F938D891F928F938F891F928F938E893E
:1005B0001F928F93BF92AF92DF92CF920E94FE0262
:1005C000C6010E94CC009FEF2DE389E491502040AA
:1005D0008040E1F700C000000FB6F894DEBF0FBE08
:1005E000CDBFC4CF991B79E004C0991F961708F0BE
:1005F000961B881F7A95C9F7809508950F931F93CE
:10060000CF93DF93CDB7DEB72E970FB6F894DEBF4A
:100610000FBECDBF0D891E8986E08C831A830983A6
:100620008FEF9FE79E838D83AE01475E5F4F6F899B
:10063000788DCE0101960E942E032F813885020FFE
:10064000131FF80110822E960FB6F894DEBF0FBE6E
:10065000CDBFDF91CF911F910F9108952F923F92BF
:100660004F925F926F927F928F929F92AF92BF92C2
:10067000CF92DF92EF92FF920F931F93CF93DF936E
:10068000CDB7DEB72C970FB6F894DEBF0FBECDBF47
:100690006C017B018A01FC0117821682838181FF34
:1006A000E4C19AE0292ECE0101964C01F601938116
:1006B000F70193FD859193FF81917F01882309F4D0
:1006C0001FC1853239F493FD859193FF81917F019C
:1006D000853229F4B60190E00E944E05E7CF512CF7
:1006E000312C20E0203238F48B3201F188F4803252
:1006F000F1F0833201F127FD32C030ED380F3A308E
:1007000010F526FF1AC0529C300D1124532E05C03F
:100710008D3279F0803379F72160F70193FD85916F
:1007200093FF81917F018111DDCF19C02260246088
:10073000F4CF2860F2CF2061F0CF329C300D11242D
:10074000332E2062EACF8E3221F426FDD9C02064F8
:10075000E4CF8C3611F42068E0CF8836F1F2982F80
:100760009F7D95549330D8F08336B9F18337D9F112
:10077000833509F06CC03801F2E06F0E711CF8018E
:10078000A080B18026FF45C0652D70E0C5012C8793
:100790000E9438052C012C852068830109C00C5F5C
:1007A0001F4FFFE3F98344244394512C54012F77C6
:1007B00023FD05C0832D90E04816590668F1732C7F
:1007C0004114510491F5772009F470CFB60180E20D
:1007D00090E00E944E057A94F6CFF80180818983DB
:1007E0000E5F1F4FE0CF3801F2E06F0E711CF80171
:1007F000A080B18026FF0AC0652D70E0C5012C875E
:100800000E9443052C0183012C85D1CF6FEF7FEF30
:10081000F5CF6FEF7FEFBACFB60180E290E02C8783
:100820000E944E053A942C85C5CFF50127FD859190
:1008300027FF81915F01B60190E02C870E944E0551
:100840002C8571107A94F1E04F1A5108B9CF843693
:1008500011F08936A9F5F80127FF29C0608171815F
:10086000828193810C5F1F4F2F76722E97FF09C0F4
:1008700090958095709561957F4F8F4F9F4F206821
:10088000722E2AE030E0A4010E947E05A82EA8184E
:1008900076FE74C0372D3E7FA51408F0AEC074FEFE
:1008A00004C072FC02C0372D3E7EB52C69C0608149
:1008B0007181072E000C880B990B0E5F1F4FD4CF50
:1008C0008537B1F42F7E722E2AE030E0F80177FEF2
:1008D0004EC060817181828193810C5F1F4FA401A2
:1008E0000E947E05A82EA818F72DFF777F2ED0CF67
:1008F000F22FF97F7F2E8F36B9F1F0F4883561F150
:10090000F601868197812C960FB6F894DEBF0FBE54
:10091000CDBFDF91CF911F910F91FF90EF90DF90AE
:10092000CF90BF90AF909F908F907F906F905F908F
:100930004F903F902F900895803751F0883701F7FE
:1009400074FE03C0872D8460782E20E130E0BECF96
:100950002F2F2061722EF4CF24FF03C09F2F9660AB
:10096000792E20E132E0B2CF28E030E0AFCF6081D5
:10097000718180E090E00E5F1F4FB1CFBA2C372D10
:1009800034FF44C0FE01EA0DF11D80818033B9F5CA
:10099000397E232F2870722E33FD49C030FF43C0AB
:1009A000B31408F049C03A0C532C5B1834FF49C00B
:1009B000B60180E390E03C870E944E053C8532FF03
:1009C00007C031FD3BC088E790E0B6010E944E05AC
:1009D000A51408F443C0AA94B12C8FEFA81AB80A42
:1009E000A80CB91CF50182915F01B60190E00E944C
:1009F0004E058A149B04B1F7E6CEBA2CC1CF32FD66
:100A000002C0B394C6CFB394B394C3CF832F867878
:100A100009F4BFCFF6CFB60180E290E03C870E9498
:100A20004E05B3943C85B314B0F3712CBFCFB3140F
:100A3000E0F7732C7B18BACF5A2CB8CF88E590E03A
:100A4000C4CF832F867821F231FF06C08BE237FDB9
:100A50008DE2B60190E0BACF80E2F9CFB60180E333
:100A600090E00E944E055A94B3CF8FEF9FEF4BCF8B
:100A7000FC010590615070400110D8F78095909569
:100A80008E0F9F1F0895FC0161507040019001106E
:100A9000D8F7809590958E0F9F1F08950F931F9301
:100AA000CF93DF93182F092FEB018B8181FD09C0B4
:100AB0001FEF0FEF812F902FDF91CF911F910F919B
:100AC000089582FF14C02E813F818C819D8128175B
:100AD00039073CF4E881F981CF0101969983888335
:100AE00010838E819F8101969F838E83E3CFE8855B
:100AF000F985812F0995892BA1F3DACFFA01AA276D
:100B0000283051F1203181F1E8946F936E7F6E5F50
:100B10007F4F8F4F9F4FAF4FB1E03ED0B4E03CD0FE
:100B2000670F781F891F9A1FA11D680F791F8A1FE1
:100B3000911DA11D6A0F711D811D911DA11D20D048
:100B400009F468943F912AE0269F11243019305D02
:100B50003193DEF6CF010895462F4770405D4193F3
:100B6000B3E00FD0C9F7F6CF462F4F70405D4A3340
:100B700018F0495D31FD4052419302D0A9F7EACF08
:100B8000B4E0A6959795879577956795BA95C9F737
:100B900000976105710508959B01AC010A2E06942A
:100BA0005795479537952795BA95C9F7620F731FE3
:0C0BB000841F951FA01D0895F894FFCF2E
:100BBC00253032642D253032642D253032642025C9
:100BCC003032643A253032643A253032640A0D00F2
:00000001FF
